:100000000C940A020C9429020C9429020C942902E3
:100010000C9429020C9429020C9429020C940925B1
:100020000C9429020C9429020C944A190C948419FA
:100030000C9429020C9429020C9429020C94290294
:100040000C9429020C9429020C9429020C94290284
:100050000C9429020C9429020C9429020C94290274
:100060000C9429020C9429020C9429020C94290264
:100070000C9429020C9429020C9429020C94290254
:100080000C9429020C9429020C9429020C94290244
:100090000C9429020C94290231192C1927192219C0
:1000A0001D19181913190E1909190419FF18FA182E
:1000B000F518F018EB18E618E118DC18D718D21864
:1000C000CD18C818C318BE18B918B418AF18AA1894
:1000D000A518A0189B18961891188C1887188218C4
:1000E0007D18781873186E18691864185F185A18F4
:1000F000551850184B18461841183C183718321824
:100100002D18281823181E18191814180F180A1853
:1001100005180018FB17F617F11708000000BE922B
:100120002449123EABAAAA2ABECDCCCC4C3E00003C
:100130000080BEABAAAAAA3E00000000BF000000DB
:10014000803F0000000000084178D3BB4387D113F3
:100150003D190E3CC3BD4282AD2B3E68EC8276BE9B
:10016000D98FE1A93E4C80EFFFBE01C4FF7F3F0065
:100170000000000007634236B79BD8A71A396856BB
:1001800018AEBAAB558C1D3CB7CC5763BD6DEDFDB9
:10019000753EF6177231BF000000803F000100007D
:1001A00083021200020000400243000300003C02F0
:1001B0000401030904FE013C02030904D4012803DD
:1001C000030904C6010C0C03310032003300340073
:1001D00035000000280350006F00770065007200B2
:1001E000200061006E0064002000530057005200A0
:1001F00020004D00650074006500720000003C03A3
:100200004C006F00660074007500720020004A0008
:100210006F006E006100730073006F006E002C00B1
:1002200020005400460033004C004A002F005600C6
:10023000450032004C004A00580000000403090445
:1002400009024300020100C0320904000001020259
:100250000100052400100105240101010424020607
:10026000052406000107058203100040090401006F
:10027000020A00000007050302400000070584028F
:100280004000001201000202000010EB034B2000AE
:1002900001010203010001C1120180360181360013
:1002A00000001500000000001010151010000000E4
:1002B00018181D18180000001C1C1D1C1C00000034
:1002C0001E1E1E1E1E0000001F1F1F1F1F000006F7
:1002D000060616060606066E616E00696E66004921
:1002E0004E46494E4954594E414E000020410000AF
:1002F000C84200401C4620BCBE4CCA1B0E5AAEC5AC
:100300009D74CDCCCC3D0AD7233C17B7D13877CCE0
:100310002B329595E6241FB14F0A00407A10F35A0C
:1003200000A0724E18090010A5D4E80000E8764835
:10033000170000E40B54020000CA9A3B000000E1E1
:10034000F505000080969800000040420F00000074
:10035000A08601000000102700000000E803000054
:1003600000006400000000000A000000000001001E
:10037000000000002C76D888DC674F0823DFC1DF3F
:10038000AE59E1B1B796E5E3E453C63AE651997642
:1003900096E8E6C28426EB898C9B62ED407C6FFC7C
:1003A000EFBC9C9F40F2BAA56FA5F490055A2AF7BE
:1003B0005C936B6CF9676DC11BFCE0E40D47FEF5C7
:1003C00020E6B500D0ED902E03009435770500802F
:1003D000841E080000204E0A000000C80C3333338E
:1003E000330F986E12831141EF8D2114893BE6552E
:1003F00016CFFEE6DB18D1844B381BF77C1D901D11
:10040000A4BBE424203284725E228100C9F124EC72
:10041000A1E53D2711241FBECFEFD0E2DEBFCDBF47
:100420001BE0A0E0B1E0E4EFF0E800E00BBF02C0A9
:1004300007900D92A035B107D9F728E1A0E5BBE000
:1004400001C01D92A73FB207E1F70E94231C0C9444
:1004500078400C940000409841984298389A399A14
:100460003A9A87B18F7087B988B1806F88B908953B
:10047000409887B18F7087B988B1806F88B9419AE9
:10048000429A66C042980000000000000000000090
:10049000000000000000000000000000000000005C
:1004A000000000000000000000000000000000004C
:1004B0000000000000000000000000000000429A60
:1004C000000000000000000000000000000000002C
:1004D000000000000000000000000000000000001C
:1004E000000000000000000000000000000000000C
:1004F0000000000000000000429800000000000022
:1005000000000000000000000000000000000000EB
:1005100000000000000000000000000000000000DB
:1005200000000000000000000000000000000000CB
:100530000000429A000000000000000000000000DF
:1005400000000000000000000000000000000000AB
:10055000000000000000000000000000000000009B
:1005600000000000000000000000000037998ACF62
:1005700042980895CF93DF931F92CDB7DEB789835A
:100580000E94380240984198429A97B1906F97B96B
:1005900028B18981982F907F2F70922B98B90000F5
:1005A000000000000000000000000000000000004B
:1005B000000000000000000000000000000000003B
:1005C000000000000000000000000000000000002B
:1005D0000000000000004298000000000000000041
:1005E000000000000000000000000000000000000B
:1005F00000000000000000000000000000000000FB
:1006000000000000000000000000000000000000EA
:10061000429A28B130E1839FC00111242F70282B0A
:1006200028B90000000000000000000000000000E9
:1006300000000000000000000000000000000000BA
:1006400000000000000000000000000000000000AA
:1006500000000000000000000000429887B18F7089
:1006600087B988B1806F88B90F90DF91CF910895D5
:10067000CF93DF931F92CDB7DEB789830E943802F4
:10068000409A4198429A97B1906F97B928B1898161
:10069000982F907F2F70922B98B9000000000000D7
:1006A000000000000000000000000000000000004A
:1006B000000000000000000000000000000000003A
:1006C000000000000000000000000000000000002A
:1006D0000000429800000000000000000000000040
:1006E000000000000000000000000000000000000A
:1006F00000000000000000000000000000000000FA
:10070000000000000000000000000000429A28B134
:1007100030E1839FC00111242F70282B28B90000DD
:1007200000000000000000000000000000000000C9
:1007300000000000000000000000000000000000B9
:1007400000000000000000000000000000000000A9
:10075000000000000000429887B18F7087B988B10F
:10076000806F88B90F90DF91CF9108950E942B027E
:1007700088E20E94BA0281E00E94BA022FEF8DEE59
:1007800092E0215080409040E1F700C0000086E0F8
:100790000E94BA028CE00E94BA0282E00E94BA0271
:1007A00080E80C94BA0281E00C94BA02623031F015
:1007B000633031F0613029F4805C03C08C5E01C08D
:1007C0008C5A80680C94BA02EF92FF921F93CF93D9
:1007D000DF931F92CDB7DEB7009771F0182F7C0121
:1007E00007C0F70181917F0169830E943803698105
:1007F0008E2D811B8617A8F30F90DF91CF911F914B
:10080000FF90EF90089594EA9093BC0094E6699F5E
:10081000B00111249B0140E054EA1DC09091BC003E
:1008200097FF13C09091B900987F903169F0983389
:1008300019F0983021F408C05093BC000CC084E03B
:100840008093BC0081E0089541E095E39A95F1F72B
:1008500000002150310921153105C9F04423F1F27E
:100860001BC08091BC0087FD1DC085E38A95F1F710
:100870000000615071096115710599F783E00895D1
:1008800084E98093BC0084E0089580E0089584E0CA
:100890008093BC0082E008958093BB0084E880933D
:1008A000BC00E9CF8091B900887F883171F3803432
:1008B00039F7EBCF8093BB0084E88093BC00809134
:1008C000BC0087FFFCCF9091B900987F81E09832FF
:1008D00009F080E00895662311F024E801C024ECBB
:1008E0002093BC002091BC0027FFFCCF2091BB00CF
:1008F000FC0120839091B900987F81E0662319F074
:10090000983521F002C0903509F080E00895AF924B
:10091000BF92CF92DF92EF92FF920F931F93CF93EC
:10092000DF9300D01F92CDB7DEB7D82EC62E8E7FB4
:1009300029834A835B830E940304F82E29814A811C
:100940005B81882389F02FC0F50181915F010E94AE
:100950005A0481110CC06C2D8D2D81600E940304FE
:10096000F82E882339F01FC05A01F22EF40EFA1027
:10097000EBCFF1CFEA940EC06801FFEFCF1ADF0A88
:1009800061E0E11060E0C8010E946B04EA948823F2
:1009900029F086018FEFE812EFCF02C085E0F82E34
:1009A00084E98093BC008F2D0F900F900F90DF9102
:1009B000CF911F910F91FF90EF90DF90CF90BF905C
:1009C000AF900895AF92BF92DF92EF92FF920F9394
:1009D0001F93CF93DF9300D01F92CDB7DEB7F12ED8
:1009E0008E7F29834A835B830E940304182F298109
:1009F0004A815B81882351F020C0F50181915F011C
:100A00000E945A04811105C015E00FC05A01D22E70
:100A1000D40EDA10F2CF09C0F50181915F010E9476
:100A20005A04811105C015E005C0A02EBF2C0E0D83
:100A30000A11F2CF84E98093BC00812F0F900F90B0
:100A40000F90DF91CF911F910F91FF90EF90DF906A
:100A5000BF90AF9008952F923F924F925F926F9206
:100A60007F928F929F92AF92BF92CF92DF92EF923E
:100A7000FF920F931F93CF93DF9300D000D0CDB799
:100A8000DEB7E0901201F0901301609118017091AF
:100A900019016E197F09882777FD8095982F0E948C
:100AA000843420E030E040E251E40E94E9333B012D
:100AB0004C0180911401909115019C838B830091CE
:100AC00016011091170160911C0170911D01601BAE
:100AD000710B882777FD8095982F0E9484349B01A5
:100AE000AC01662D772D882D992D0E94E9332B01BD
:100AF00089839A83B701882777FD8095982F0E9474
:100B0000843420E030E040E251E40E94E9331B01EC
:100B10005C016091B2187091B318EB81FC816E1B7F
:100B20007F0B882777FD8095982F0E9484346B0176
:100B30007C0160911A0170911B018B819C81681B63
:100B4000790B882777FD8095982F0E9484349B012C
:100B5000AC01662D772D882D992D0E94E9339B01DC
:100B6000AC01C701B6010E948335222D332D4A2DD9
:100B70005B2D0E9481337B014C01862F9F2DA82D78
:100B8000B92D8093E5189093E618A093E718B093D9
:100B9000E8186091CC187091CD18601B710B8827F4
:100BA00077FD8095982F0E94843419810A81242D25
:100BB000352D412F502F0E948335222D332D4A2D64
:100BC0005B2D0E9481336B018C01562F4D2D862F9A
:100BD0009D2DA02FB12F8093CE189093CF18A09366
:100BE000D018B093D118252F342F4A2F5B2F6E2D9C
:100BF0007F2D882D992D0E94343518161CF41092E3
:100C0000D2181BC04E2D5F2D682D792D4093CE1824
:100C10005093CF186093D0187093D1188C2D9D2DC0
:100C2000A02FB12F8093E5189093E618A093E718B2
:100C3000B093E8188FEF8093D2180F900F900F9019
:100C40000F90DF91CF911F910F91FF90EF90DF9068
:100C5000CF90BF90AF909F908F907F906F905F905C
:100C60004F903F902F9008954F925F926F927F9296
:100C70008F929F92AF92BF92CF92DF92EF92FF92AC
:100C80000F931F93CF93DF932B013C0149015A012E
:100C9000C090D318D090D418E090D518F090D61802
:100CA00020E030E040E85FE3C701B6010E94343540
:100CB000181654F020E030E040E85FEBC701B601C1
:100CC0000E94E53387FFA1C0A3019201C501B401D1
:100CD0000E94E9338B01D82FC92F20E030E040E893
:100CE0005FE3FE01712F8F2F9E2F0E9481334B01F6
:100CF0005C01CE01202F312F492F582F60E070E08A
:100D000080E89FE30E9480339B01AC01C501B401E0
:100D10000E94E9338B01D82FC92F9E01862F912F76
:100D2000A32FB22F80930B0190930C01A0930D0180
:100D3000B0930E0120E030E040E251E4FE01602F6C
:100D4000712F8F2F9E2F0E94E53387FF14C09E01C5
:100D5000602F712F832F922F0E94383520E030E0D2
:100D60004AE754E40E9483350E9456347093F21887
:100D70006093F11806C088EE93E09093F218809388
:100D8000F11870901F0188E2781699F120E030E0A8
:100D900040E251E4FE01602F712F8F2F9C2F0E94A3
:100DA00083354B015C01672D70E080E090E00E948C
:100DB00084349B01AC01C501B4010E94343587FD28
:100DC00018C0609120017091210180E090E00E94A4
:100DD00082349B01AC01C701B6010E94343518165C
:100DE00044F4809176169091771687FD709A80680A
:100DF00007C0809176169091771687FF2AC08F776B
:100E0000909377168093761624C02AE037ED43E25C
:100E10005CE3C701B6010E9434351816D4F02AE00D
:100E200037ED43E25CEBC701B6010E94E53387FD75
:100E300010C080E090E0A0E8BFE380930B019093A6
:100E40000C01A0930D01B0930E011092F2181092B4
:100E5000F118DF91CF911F910F91FF90EF90DF90EC
:100E6000CF90BF90AF909F908F907F906F905F904A
:100E70004F9008954F925F926F927F928F929F92C0
:100E8000AF92BF92CF92DF92EF92FF920F931F9398
:100E9000CF93DF9320E030E040EA51E46091E51821
:100EA0007091E6188091E7189091E8180E94E93354
:100EB0009B01AC0160E070E080E291E40E94E635C5
:100EC000962E872E782E692EB401C301272F362F38
:100ED000492F582FD401F3016B2F7A2F8F2F9E2F7C
:100EE0000E9483358B01D82FC92F9E01862F912F09
:100EF000A32FB22F8093C8189093C918A093CA1833
:100F0000B093CB18602F712F832F922F0E9438350A
:100F100020E030E040E251E40E9483356093E9181C
:100F20007093EA188093EB189093EC1820E030E06F
:100F300040EA51E46091CE187091CF188091D0189A
:100F40009091D1180E94E9339B01AC0160E070E000
:100F500080E291E40E94E6355B016C01762F272F39
:100F60003B2D4C2D5D2D6A2D7B2D8C2D9D2D0E94B2
:100F700083352B017C01862F952DAE2DBF2D8093BF
:100F8000C4189093C518A093C618B093C718642DC1
:100F9000752D8E2D9F2D0E94383520E030E040E2E7
:100FA00051E40E9483356093DB187093DC188093C2
:100FB000DD189093DE18242D352D4E2D5F2DFE016A
:100FC000602F712F8F2F9E2F0E9480337B018C0109
:100FD000862F9F2DA02FB12F8093D3189093D418D4
:100FE000A093D518B093D6186E2D7F2D802F912FFA
:100FF0000E94383520E030E040E251E40E94833521
:10100000262F372F482F592F2093D7183093D818D1
:101010004093D9185093DA18C091500BD091510BCE
:101020005090520B20E030E048EC52E40E948335AF
:101030000E945134E52DF0E0EE0FFF1FED5AF44F02
:1010400071836083FE01EE0FFF1FE558F44F71833B
:1010500060832196D093510BC093500B252D2F5FA9
:101060002093520B8091230190912401C817D90736
:1010700020F01092510B1092500B243111F4109269
:10108000520BEBE7FBE040E050E021E030E808C025
:1010900061917191261737070CF49B014F5F5F4FE9
:1010A00048175907A9F7E3E5FBE0C1E0D0E88191D3
:1010B0009191C817D9070CF4EC018BE0EB37F807D6
:1010C000B1F7B901882777FD8095982F0E94843465
:1010D00020E030E048EC52E40E94E933FB01462F67
:1010E0005F2F682F792F4093C0185093C1186093D9
:1010F000C2187093C31820E030E040E251E4BF0111
:101100000E94E9339B01AC0160E070E080E291E471
:101110000E94E635462F572F682F792F4093DF180E
:101120005093E0186093E1187093E218BE0188278D
:1011300077FD8095982F0E94843420E030E048ECC1
:1011400052E40E94E933FB01462F5F2F682F792F6D
:101150004093BC185093BD186093BE187093BF188D
:1011600020E030E040E251E46E2F7F2F0E94E9330F
:101170009B01AC0160E070E080E291E40E94E63502
:10118000462F572F682F792F4093B8185093B918CE
:101190006093BA187093BB1850904B13C52DD0E0D4
:1011A000FE01EE0FFF1FEE0FFF1FE45BFC4E8E2DC6
:1011B0009F2DA02FB12F80839183A283B383209191
:1011C0006C1630916D1640916E1650916F166E2D03
:1011D0007F2D802F912F0E94813326EC251558F00A
:1011E000CC0FDD1FCC0FDD1FC05BDC4E28813981A9
:1011F0004A815B8108C020914C1330914D1340917E
:101200004E1350914F130E94803360936C1670936D
:101210006D1680936E1690936F16852D8F5F883CA8
:1012200019F080934B1302C010924B1320E030E072
:1012300048E453E460916C1670916D1680916E16BF
:1012400090916F160E94E9339B01462F532F682F10
:10125000792F4093ED185093EE186093EF18709328
:10126000F018622F732F0E94383520E030E040E202
:1012700051E40E9483356093B4187093B51880933D
:10128000B6189093B7182A2D3B2D4C2D5D2DD40107
:10129000F3016B2F782D8F2F962DDF91CF911F911A
:1012A0000F91FF90EF90DF90CF90BF90AF909F9005
:1012B0008F907F906F905F904F900C94340696E8DB
:1012C00090937A00982F9072906890937B008F7122
:1012D000806C80937C0086EC80937A0080917A0009
:1012E00086FDFCCF209178004091790084E0289F12
:1012F00090011124942F990F990F80E0282B392BFE
:10130000C9010895EF92FF920F931F93CF93DF933C
:101310001F92CDB7DEB78091BC0084608093BC0083
:101320001092B9008CE08093B80082E580932F186A
:101330006AE00E940304882331F080E580932F182F
:10134000FF24F39402C082E0F82E84E98093BC006D
:101350006AE080912F180E940304882319F01092EC
:101360002F18F12C84E98093BC00FF2071F088E3F2
:101370008983EE24E3948E010F5F1F4F20E0A801C4
:101380006AE080912F180E94E2048F2D0F90DF9168
:10139000CF911F910F91FF90EF900895EF920F93CF
:1013A0001F93CF93DF93CDB7DEB72C970FB6F8948A
:1013B000DEBF0FBECDBF80912F188823B9F194E016
:1013C000E92E8E01075F1F4F20E0A8016AE00E940E
:1013D00087042985822F82958370FE013196E80F5C
:1013E000F11DE80FF11D922F9F7080E02A85820F7A
:1013F000911D918380832B85822F82958370FE01BE
:101400003196E80FF11DE80FF11D922F9F7080E0DB
:101410002C85820F911D9183808389819A8190937D
:10142000B3188093B2188B819C810AC080E00E941F
:101430005F099093B3188093B21881E00E945F090E
:101440009093CD188093CC182C960FB6F894DEBFED
:101450000FBECDBFDF91CF911F910F91EF900895F7
:101460000F931F93CF93DF9300910B0110910C0109
:10147000D0910D01C0910E0120E030E040E050E439
:10148000FE01602F712F8F2F9E2F0E94E53387FF63
:1014900017C0CF93DF931F930F9386E891E09F933C
:1014A0008F9382E698E19F938F930E94883F8DB738
:1014B0009EB708960FB6F8949EBF0FBE8DBF55C05D
:1014C00020E030E040E251E4FE01602F712F8F2FC9
:1014D0009E2F0E94E53387FF17C0CF93DF931F93A2
:1014E0000F938EE891E09F938F9382E698E19F930C
:1014F0008F930E94883F8DB79EB708960FB6F894D9
:101500009EBF0FBE8DBF31C020E030E44CE156E4F9
:10151000FE01602F712F8F2F9E2F0E94E53387FFD2
:101520001AC09E01602F712F832F922F0E94563474
:101530007F936F9387E991E09F938F9382E698E181
:101540009F938F930E94883F0F900F900F900F9062
:101550000F900F900AC06BE971E082E698E1DF918D
:10156000CF911F910F910C942D3FDF91CF911F913F
:101570000F9108959C0137FF04C088279927821B8B
:10158000930B6AE070E00E94E13A2D394FEF340787
:10159000BCF49F938F937F936F9381EA91E09F9325
:1015A0008F9382E698E19F938F930E94883F8DB737
:1015B0009EB708960FB6F8949EBF0FBE8DBF0895D4
:1015C00037FF17C09F938F937F936F938DEA91E0BE
:1015D0009F938F9382E698E19F938F930E94883F19
:1015E0008DB79EB708960FB6F8949EBF0FBE8DBFFD
:1015F00008959F938F937F936F938AEB91E09F93CE
:101600008F9382E698E19F938F930E94883F8DB7D6
:101610009EB708960FB6F8949EBF0FBE8DBF089573
:10162000CF92DF92EF92FF926B017C0120E034E2D7
:1016300044E759E40E94343587FD0FC0C701B60165
:101640000E94563428EE33E040E050E00E94F53A24
:101650003F932F9385EC91E07DC220E030E543EC91
:1016600057E4C701B6010E94343587FD0FC0C7019A
:10167000B6010E94563428EE33E040E050E00E946C
:10168000F53A3F932F938BEC91E064C220E030E475
:101690004CE156E4C701B6010E94343587FD29C0EC
:1016A000C701B6010E94563428EE33E040E050E016
:1016B0000E94F53AF22EE32E24E630E040E050E0BE
:1016C0000E94F53A3F932F93EF92FF9282ED91E0C3
:1016D0009F938F9382E698E19F938F930E94883F18
:1016E0008DB79EB708960FB6F8949EBF0FBE8DBFFC
:1016F0007BC220E030E04AE754E4C701B6010E9413
:10170000343587FD29C0C701B6010E94563428EE42
:1017100033E040E050E00E94F53AF22EE32E2AE05A
:1017200030E040E050E00E94F53A3F932F93EF9273
:10173000FF928DED91E09F938F9382E698E19F93C6
:101740008F930E94883F8DB79EB708960FB6F89486
:101750009EBF0FBE8DBF48C220E030E048EC52E48F
:10176000C701B6010E94343587FD09C0C701B60123
:101770000E9456347F936F9388EE91E0EBC120E096
:1017800030E040E251E4C701B6010E94343587FDE4
:1017900027C020E030E040E251E4C701B6010E94DA
:1017A00083350E9456342AE030E040E050E00E9449
:1017B000F53A7F936F933F932F938FEE91E09F9332
:1017C0008F9382E698E19F938F930E94883F8DB715
:1017D0009EB708960FB6F8949EBF0FBE8DBF04C289
:1017E00020E030E040E85FE3C701B6010E943435F5
:1017F00087FD27C020E030E048EC52E4C701B60185
:101800000E9483350E94563424E630E040E050E0E8
:101810000E94F53A7F936F933F932F938AEF91E065
:101820009F938F9382E698E19F938F930E94883FC6
:101830008DB79EB708960FB6F8949EBF0FBE8DBFAA
:10184000D3C12DEC3CEC4CEC5DE3C701B6010E942A
:10185000343587FD0FC020E030E04AE754E4C7018B
:10186000B6010E9483350E9456347F936F9385E0C2
:1018700092E070C12AE037ED43E25CE3C701B601B4
:101880000E94343587FD27C020E030E44CE156E467
:10189000C701B6010E9483350E9456342AE030E029
:1018A00040E050E00E94F53A7F936F933F932F936F
:1018B0008CE092E09F938F9382E698E19F938F93C1
:1018C0000E94883F8DB79EB708960FB6F8949EBFCA
:1018D0000FBE8DBF89C12FE632E143E85AE3C7014D
:1018E000B6010E94343587FD27C020E030E543EC87
:1018F00057E4C701B6010E9483350E94563424E69E
:1019000030E040E050E00E94F53A7F936F933F93C0
:101910002F9387E192E09F938F9382E698E19F93C4
:101920008F930E94883F8DB79EB708960FB6F894A4
:101930009EBF0FBE8DBF58C127E137EB41ED58E385
:10194000C701B6010E94343587FD0FC020E034E2A4
:1019500044E759E4C701B6010E9483350E9456341A
:101960007F936F9382E292E0F5C02CEA35EC47E278
:1019700057E3C701B6010E94343587FD27C020E830
:1019800036E948E15BE4C701B6010E9483350E9455
:1019900056342AE030E040E050E00E94F53A7F9370
:1019A0006F933F932F9389E292E09F938F9382E608
:1019B00098E19F938F930E94883F8DB79EB70896BA
:1019C0000FB6F8949EBF0FBE8DBF0EC12DEB37E34F
:1019D00046E855E3C701B6010E94343587FD27C0AC
:1019E00020E23CEB4EEB5CE4C701B6010E9483357C
:1019F0000E94563424E630E040E050E00E94F53A80
:101A00007F936F933F932F9384E392E09F938F9301
:101A100082E698E19F938F930E94883F8DB79EB78F
:101A200008960FB6F8949EBF0FBE8DBFDDC025E9A6
:101A30003FEB46ED53E3C701B6010E94343587FD05
:101A40000FC028E23BE64EE65EE4C701B6010E9405
:101A500083350E9456347F936F938FE392E07AC070
:101A600027E73CEC4BE252E3C701B6010E94343554
:101A700087FD27C029EF32E045E150E5C701B601F7
:101A80000E9483350E9456342AE030E040E050E066
:101A90000E94F53A7F936F933F932F9386E492E0F1
:101AA0009F938F9382E698E19F938F930E94883F44
:101AB0008DB79EB708960FB6F8949EBF0FBE8DBF28
:101AC00093C02FE530E749E850E3C701B6010E9413
:101AD000343587FD27C027EB33E44AEB51E5C701D6
:101AE000B6010E9483350E94563424E630E040E07F
:101AF00050E00E94F53A7F936F933F932F9381E5D7
:101B000092E09F938F9382E698E19F938F930E9438
:101B1000883F8DB79EB708960FB6F8949EBF0FBE4C
:101B20008DBF62C02FEF36EE4BED5EE2C701B6010E
:101B30000E94343587FD1DC025EA34ED48E653E5A3
:101B4000C701B6010E9483350E9456347F936F937C
:101B50008CE592E09F938F9382E698E19F938F9319
:101B60000E94883F0F900F900F900F900F900F9052
:101B70003BC02FEF3BEE4FE25DE2C701B6010E9492
:101B8000343587FD27C027EE34E841E155E5C7012C
:101B9000B6010E9483350E9456342AE030E040E0CE
:101BA00050E00E94F53A7F936F933F932F9383E623
:101BB00092E09F938F9382E698E19F938F930E9488
:101BC000883F8DB79EB708960FB6F8949EBF0FBE9C
:101BD0008DBF0AC06EE672E082E698E1FF90EF905A
:101BE000DF90CF900C942D3FFF90EF90DF90CF903F
:101BF0000895CF92DF92EF92FF926B017C0120E07B
:101C000034E244E759E40E94343587FD0FC0C70130
:101C1000B6010E94563428EE33E040E050E00E94C6
:101C2000F53A3F932F9386EC91E093C020E030E5A6
:101C300043EC57E4C701B6010E94343587FD0FC05D
:101C4000C701B6010E94563428EE33E040E050E070
:101C50000E94F53A3F932F938DEC91E07AC020E0FB
:101C600030E44CE156E4C701B6010E94343587FDEB
:101C70000FC0C701B6010E94563428EE33E040E0A1
:101C800050E00E94F53A3F932F9385E792E061C0C0
:101C900020E030E04AE754E4C701B6010E94343541
:101CA00087FD29C0C701B6010E94563428EE33E0F3
:101CB00040E050E00E94F53AF22EE32E2AE030E0B8
:101CC00040E050E00E94F53A3F932F93EF92FF924D
:101CD0008BE792E09F938F9382E698E19F938F9397
:101CE0000E94883F8DB79EB708960FB6F8949EBFA6
:101CF0000FBE8DBF3CC020E030E048EC52E4C7018D
:101D0000B6010E94343587FD09C0C701B6010E94A3
:101D100056347F936F9389EE91E01BC020E030E052
:101D200040E251E4C701B6010E94343587FD09C085
:101D3000C701B6010E9456347F936F9385E892E005
:101D400008C0C701B6010E9456347F936F938CE898
:101D500092E09F938F9382E698E19F938F930E94E6
:101D6000883F0F900F900F900F900F900F90FF9063
:101D7000EF90DF90CF900895CF93DF938091D218AA
:101D8000882331F061E070E089E699E00E94A417B1
:101D900020E030E04AE754E46091D3187091D41801
:101DA0008091D5189091D6180E94E9339F938F9314
:101DB0007F936F9384E992E09F938F93C2E6D8E17B
:101DC000DF93CF930E94883FFE0101900020E9F746
:101DD000BF01615071096C1B7D0BCE010E94A417DD
:101DE00080910E018F9380910D018F9380910C0152
:101DF0008F9380910B018F9387E891E09F938F934E
:101E0000DF93CF930E94883FFE0101900020E9F705
:101E1000BF01615071096C1B7D0BCE010E94A4179C
:101E20006DED73E0CE010E942D3FFE010190002078
:101E3000E9F7BF01615071096C1B7D0B8DB79EB72F
:101E400040960FB6F8949EBF0FBE8DBFCE01DF91B6
:101E5000CF910C94A417CF93DF936091D318709116
:101E6000D4188091D5189091D6180E94100BC2E614
:101E7000D8E1FE0101900020E9F7BF01615071092E
:101E80006C1B7D0BCE010E94A41766E070E08CE90C
:101E900092E00E94A4170E94300AFE0101900020E7
:101EA000E9F7BF01615071096C1B7D0BCE010E94E7
:101EB000A4176DED73E0CE010E942D3FFE0101904D
:101EC0000020E9F7BF01615071096C1B7D0BCE0149
:101ED000DF91CF910C94A417CF93DF936091B81842
:101EE0007091B9188091BA189091BB180E94100B8C
:101EF000C2E6D8E1FE0101900020E9F7BF01615080
:101F000071096C1B7D0BCE010E94A41766E070E086
:101F10008CE992E00E94A4170E94300AFE01019011
:101F20000020E9F7BF01615071096C1B7D0BCE01E8
:101F30000E94A4176DED73E0CE010E942D3FFE01BB
:101F400001900020E9F7BF01615071096C1B7D0B06
:101F5000CE01DF91CF910C94A417CF93DF936091C2
:101F6000DF187091E0188091E1189091E2180E94BA
:101F7000100BC2E6D8E1FE0101900020E9F7BF0195
:101F8000615071096C1B7D0BCE010E94A41766E0A5
:101F900070E08CE992E00E94A4170E94300AFE01D2
:101FA00001900020E9F7BF01615071096C1B7D0BA6
:101FB000CE010E94A4176DED73E0CE010E942D3F6B
:101FC000FE0101900020E9F7BF01615071096C1B0F
:101FD0007D0BCE01DF91CF910C94A417CF93DF93AB
:101FE0006091ED187091EE188091EF189091F018B3
:101FF0000E94100BC2E6D8E1FE0101900020E9F733
:10200000BF01615071096C1B7D0BCE010E94A417AA
:1020100066E070E08CE992E00E94A4170E94300A0A
:10202000FE0101900020E9F7BF01615071096C1BAE
:102030007D0BCE010E94A4176DED73E0CE010E94CE
:102040002D3FFE0101900020E9F7BF0161507109A9
:102050006C1B7D0BCE01DF91CF910C94A417CF9315
:10206000DF9320E030E040E251E46091D7187091B6
:10207000D8188091D9189091DA180E9483350E945F
:102080005134CB010E94BA0AC2E6D8E1FE010190A8
:102090000020E9F7BF01615071096C1B7D0BCE0177
:1020A0000E94A41766E070E08CE992E00E94A417F9
:1020B0000E94300AFE0101900020E9F7BF01615043
:1020C00071096C1B7D0BCE010E94A4176DED73E0AE
:1020D000CE010E942D3FFE0101900020E9F7BF01D3
:1020E000615071096C1B7D0BCE01DF91CF910C9477
:1020F000A417CF93DF9320E030E040E251E46091F9
:10210000BC187091BD188091BE189091BF180E94A4
:1021100083350E945134CB010E94BA0AC2E6D8E14D
:10212000FE0101900020E9F7BF01615071096C1BAD
:102130007D0BCE010E94A41766E070E08CE992E06E
:102140000E94A4170E94300AFE0101900020E9F7C6
:10215000BF01615071096C1B7D0BCE010E94A41759
:102160006DED73E0CE010E942D3FFE010190002035
:10217000E9F7BF01615071096C1B7D0BCE01DF9146
:10218000CF910C94A417CF93DF9320E030E040E28E
:1021900051E46091C0187091C1188091C21890915B
:1021A000C3180E9483350E945134CB010E94BA0AA1
:1021B000C2E6D8E1FE0101900020E9F7BF016150BD
:1021C00071096C1B7D0BCE010E94A41766E070E0C4
:1021D0008CE992E00E94A4170E94300AFE0101904F
:1021E0000020E9F7BF01615071096C1B7D0BCE0126
:1021F0000E94A4176DED73E0CE010E942D3FFE01F9
:1022000001900020E9F7BF01615071096C1B7D0B43
:10221000CE01DF91CF910C94A417CF93DF9320E0F0
:1022200030E040E251E46091B4187091B5188091AB
:10223000B6189091B7180E9483350E945134CB0193
:102240000E94BA0AC2E6D8E1FE0101900020E9F737
:10225000BF01615071096C1B7D0BCE010E94A41758
:1022600066E070E08CE992E00E94A4170E94300AB8
:10227000FE0101900020E9F7BF01615071096C1B5C
:102280007D0BCE010E94A4176DED73E0CE010E947C
:102290002D3FFE0101900020E9F7BF016150710957
:1022A0006C1B7D0BCE01DF91CF910C94A417CF93C3
:1022B000DF9363EA72E082E698E10E942D3FE2E656
:1022C000F8E1DF010D900020E9F7BD0161507109CF
:1022D0006E1B7F0BCF010E94A4178091D218882318
:1022E00031F061E070E089E699E00E94A417609106
:1022F000D3187091D4188091D5189091D6180E9457
:10230000100BE2E6F8E1DF010D900020E9F7BD01D6
:10231000615071096E1B7F0BCF010E94A41762E010
:1023200070E089E992E00E94A4178091D218882376
:1023300031F061E070E089E699E00E94A4176091B5
:10234000B8187091B9188091BA189091BB180E9472
:10235000100BE2E6F8E1DF010D900020E9F7BD0186
:10236000615071096E1B7F0BCF010E94A41762E0C0
:1023700070E089E992E00E94A4178091D218882326
:1023800031F061E070E089E699E00E94A417609165
:10239000DF187091E0188091E1189091E2180E9486
:1023A000100BE2E6F8E1DF010D900020E9F7BD0136
:1023B000615071096E1B7F0BCF010E94A41762E070
:1023C00070E089E992E00E94A4178091D2188823D6
:1023D00031F061E070E089E699E00E94A417609115
:1023E000ED187091EE188091EF189091F0180E94FE
:1023F000100BC2E6D8E1FE0101900020E9F7BF0111
:10240000615071096C1B7D0BCE010E94A4176DED0C
:1024100073E0CE010E942D3FDE010D900020E9F710
:10242000BD01615071096C1B7D0BCE010E94A41788
:102430006FEC72E0CE010E942D3FFE010190002062
:10244000E9F7BF01615071096C1B7D0BCE010E9441
:10245000A4178091D218882331F061E070E089E6FA
:1024600099E00E94A4176091C8187091C9188091D2
:10247000CA189091CB180E94100BE2E6F8E1DF0138
:102480000D900020E9F7BD01615071096E1B7F0BB3
:10249000CF010E94A41762E070E089E992E00E94F7
:1024A000A4178091D218882331F061E070E089E6AA
:1024B00099E00E94A4176091C4187091C51880918A
:1024C000C6189091C7180E94100BC2E6D8E1FE0111
:1024D00001900020E9F7BF01615071096C1B7D0B71
:1024E000CE010E94A4176DED73E0CE010E942D3F36
:1024F000DE010D900020E9F7BD01615071096C1BF0
:102500007D0BCE010E94A41764E070E08EE992E09A
:102510000E94A4170E94300AFE0101900020E9F7F2
:10252000BF01615071096C1B7D0BCE010E94A41785
:102530006DED73E0CE010E942D3FDE010D90002075
:10254000E9F7BD01615071096C1B7D0BCE010E9442
:10255000A4176DED73E0CE010E942D3FFE010190A6
:102560000020E9F7BF01615071096C1B7D0BCE01A2
:10257000DF91CF910C94A417CF92DF92EF92FF924C
:102580000F931F93CF93DF9300D0CDB7DEB760E3F7
:1025900078E185EF92E00E94243F0097A1F48091BA
:1025A000220180FF02C087FF0BC081E080932201DF
:1025B00041E050E063E170E082E291E00E94394046
:1025C0000E94BC0E1BC460E378E18BEF92E00E9496
:1025D000243F0097A1F48091220181FF02C087FF70
:1025E0000BC082E08093220141E050E063E170E0A3
:1025F00082E291E00E9439400E942B0FFFC360E30A
:1026000078E181E093E00E94243F0097A1F480915B
:10261000220182FF02C087FF0BC084E08093220169
:1026200041E050E063E170E082E291E00E943940D5
:102630000E94AD0FE3C360E378E185E093E00E9480
:10264000243F009741F48091220183FF02C087FF5D
:10265000EFCF88E0E3CF60E378E18AE093E00E9487
:10266000243F0097A1F48091220184FF02C087FFDC
:102670000BC080E18093220141E050E063E170E013
:1026800082E291E00E9439400E94EE0FB7C360E3FE
:1026900078E18FE093E00E94243F0097B1F48091AD
:1026A0002201982F9272923211F487FF0BC082E2BE
:1026B0008093220141E050E063E170E082E291E02A
:1026C0000E9439400E942F1099C360E378E187E1AE
:1026D00093E00E94243F0097B1F480912201982F4B
:1026E0009472943211F487FF0BC084E2809322012C
:1026F00041E050E063E170E082E291E00E94394005
:102700000E9479107BC360E378E18DE193E00E9441
:10271000243F0097B1F480912201982F987298324B
:1027200011F487FF0BC088E28093220141E050E062
:1027300063E170E082E291E00E9439400E94C310A0
:102740005DC360E378E184E293E00E94243F009758
:10275000B1F480912201982F9073903311F487FF88
:102760000BC080E38093220141E050E063E170E020
:1027700082E291E00E9439400E940D113FC360E364
:1027800078E18BE293E00E94243F0097A1F48091CE
:10279000220186FF02C087FF0BC080E480932201E4
:1027A00041E050E063E170E082E291E00E94394054
:1027B0000E94571123C360E378E181E393E00E9414
:1027C000243F009771F48091220187FD17C3806830
:1027D0008093220141E050E063E170E082E291E009
:1027E0009EC060E378E187E393E00E94243F009776
:1027F00079F580911D018F9380911C018F938091B9
:102800001B018F9380911A018F93809119018F93EF
:10281000809118018F93809117018F9380911601F9
:102820008F93809115018F93809114018F938091E4
:1028300013018F93809112018F938EE393E09F9306
:102840008F9302E618E11F930F930E94883F76C290
:1028500046E050E060E378E18DE593E00E94343F8C
:10286000009709F05FC04AE050E0BE016F5F7F4F04
:1028700086E398E10E94F53C709313016093120186
:102880004AE050E0BE016F5F7F4F89819A810E94CC
:10289000F53C70931501609314014AE050E0BE01CD
:1028A0006F5F7F4F89819A810E94F53C7093170179
:1028B000609316014AE050E0BE016F5F7F4F89814F
:1028C0009A810E94F53C70931901609318014AE0C7
:1028D00050E0BE016F5F7F4F89819A810E94F53C75
:1028E00070931B0160931A014AE050E0BE016F5FD4
:1028F0007F4F89819A810E94F53C70931D016093FE
:102900001C0146E050E063E070E082E191E00E944B
:10291000394046E050E069E070E088E191E00E94D3
:1029200039406CC260E378E184E693E00E94243F82
:102930000097B9F4809127011F928F93809126010F
:102940001F928F93809125011F928F938DE693E0C4
:102950009F938F9302E618E11F930F930E94883F85
:10296000EDC148E050E060E378E182E893E00E9446
:10297000343F009709F050C04AE050E0BE016F5F5D
:102980007F4F88E398E10E94F53C162F4AE050E023
:10299000BE016F5F7F4F89819A810E94F53C062FAF
:1029A0004AE050E0BE016F5F7F4F89819A810E94AB
:1029B000F53CEAE01E9FC0011124202F30E02817CB
:1029C00039073CF0212F220F022F000F000F020FBA
:1029D0000150262F30E0281739073CF0812F880F4F
:1029E000682F660F660F680F6150011708F4012FFA
:1029F000802F011708F4812F1093250100932601E1
:102A0000861708F4862F8093270143E050E066E1A3
:102A100070E085E291E083CF60E378E18BE893E0BA
:102A20000E94243F009731F563E973E082E698E164
:102A30000E942D3F02E618E1F80101900020E9F71D
:102A4000BF0161507109601B710BC8010E94A4177E
:102A500066EC73E0C8010E942D3FF8010190002050
:102A6000E9F7BF0161507109601B710BC8010E9439
:102A7000A417C4C149E050E060E378E180EE93E040
:102A80000E94343F009779F444E150E069E378E133
:102A900088E291E00E94423F45E150E069E170E048
:102AA00088E291E03CCF4BE050E060E378E18AEED1
:102AB00093E00E94343F009709F051C0BE016F5F60
:102AC0007F4F8BE398E10E949A3B6B017C0120E0F1
:102AD00030E0A9010E94E533882391F12FE632E12D
:102AE00043E85AE3C701B6010E94E533882341F168
:102AF0002AE037ED43E25CE3C701B6010E94E5330B
:102B00008823F1F02DEC3CEC4CEC5DE3C701B60101
:102B10000E94E5338823A1F020E030E040E85FE345
:102B2000C701B6010E94E533882351F020E030E070
:102B300040E251E4C701B6010E94E53381115EC154
:102B4000C0923D01D0923E01E0923F01F0924001DF
:102B500044E050E06EE270E08DE391E0E0CE60E3AF
:102B600078E186EF93E00E94243F009779F480910A
:102B700040018F9380913F018F9380913E018F930D
:102B800080913D018F9382E094E0D0C048E050E016
:102B900060E378E186E294E00E94343F0097E9F434
:102BA000BE016F5F7F4F88E398E10E949A3B20E06F
:102BB00030E040E251E40E9483350E945634CB015C
:102BC0000F974A9708F01AC160931F0141E050E047
:102BD00060E170E08FE191E0A2CE60E378E18FE206
:102BE00094E00E94243F0097A1F460911F0170E0DF
:102BF00080E090E00E94843420E030E040E251E444
:102C00000E94E9339F938F937F936F9388E394E0BF
:102C10008DC04DE050E060E378E184E594E00E94EF
:102C2000343F009731F54AE050E0BE016F5F7F4FBF
:102C30008DE398E10E94F53C6130710579F06A30CE
:102C4000710561F06436710549F0683E93E07907DB
:102C500029F06031E7E27E0709F0D0C070932101CE
:102C60006093200142E050E061E170E080E291E099
:102C700056CE60E378E182E694E00E94243F00971C
:102C800049F4809121018F93809120018F9380E7F7
:102C900094E09AC04CE050E060E378E180E994E091
:102CA0000E94343F009731F5BE016F5F7F4F8CE388
:102CB00098E10E949A3B20E030E048E453E40E940F
:102CC00083350E945634683C710549F0643FF1E059
:102CD0007F0729F0683E23E0720709F08FC07093E8
:102CE00024016093230142E050E064E170E083E25C
:102CF00091E015CE60E378E18DE994E00E94243FF5
:102D0000009771F5609123017091240180E090E0BB
:102D10000E94823420E030E048E453E40E94E9332A
:102D20009F938F937F936F938AEA94E09F938F93FF
:102D300002E618E11F930F930E94883FF80101906B
:102D40000020E9F7BF0161507109601B710BC801D8
:102D50000E94A4170FB6F894DEBF0FBECDBF4EC0C1
:102D600046E050E060E378E18FEB94E00E94343F6E
:102D70000097D1F44AE050E0BE016F5F7F4F86E3D9
:102D800098E10E94F53C9B01215031092830310522
:102D9000A8F5709311016093100142E050E061E0EA
:102DA00070E080E191E0BBCD60E378E186EC94E0F7
:102DB0000E94243F009711F5809111018F9380911B
:102DC00010018F938DEC94E09F938F9302E618E1AE
:102DD0001F930F930E94883FF80101900020E9F7AC
:102DE000BF0161507109601B710BC8010E94A417DB
:102DF0000F900F900F900F900F900F900F900F90DB
:102E0000DF91CF911F910F91FF90EF90DF90CF90C6
:102E10000895CF930E948A17C82F882369F1809163
:102E20007016811129C00E946517843229F58FEF31
:102E30008093701610927116C1501EC00E946517C3
:102E4000C15020917116213309F40BC030E0F90113
:102E5000E05DF74E8D3011F08A3041F410820E940F
:102E6000BC12109270161092711601C0808380916E
:102E700071168F5F80937116CC2321F080917016AC
:102E80008111DCCFCF9108958091E80080FFFCCFC5
:102E9000089581E88093D70080EA8093D80086E186
:102EA00089BD09B400FEFDCF80E98093D80010925F
:102EB000E00010927316109274168CE08093E2007A
:102EC000789408958091731608958FB7F89490912F
:102ED0007316911101C00DC093E09093E9002BE6A9
:102EE0009091E80095FD09C092FF03C02093E8008F
:102EF000F7CF8FBF2FEF3FEF0BC02091F1009091E4
:102F0000E80095FD03C09BE69093E8008FBF30E09A
:102F1000C90108952FB7F89480917316811102C0EA
:102F200080E010C083E08093E9008091F20081117D
:102F300009C09091E80092FFF3CF95FDF1CF9BE699
:102F40009093E8002FBF08950F931F93CF938C01A8
:102F500080917316811101C00FC04FB7F89484E0BF
:102F60008093E90080917516882309F483C18091CC
:102F7000E80085FD03C04FBF8FEF85C11092751625
:102F800079C18091E400875E9091E80095FD12C0C0
:102F90004FBF9091E400981304C081E080937516B0
:102FA000EBCF90917316992339F34FB7F894509360
:102FB000E900EACF8091F2009A2F981B892F292FE0
:102FC00030E06217730708F4862F681B710990E0E0
:102FD0008134910508F040C1845B9F4FFC010C9443
:102FE000173BF80181918F018093F100F8018191E5
:102FF0008F018093F100F80181918F018093F1009E
:10300000F80181918F018093F100F80181918F0186
:103010008093F100F80181918F018093F100F80114
:1030200081918F018093F100F80181918F0180934C
:10303000F100F80181918F018093F100F8018191F5
:103040008F018093F100F80181918F018093F1004D
:10305000F80181918F018093F100F80181918F0136
:103060008093F100F80181918F018093F100F801C4
:1030700081918F018093F100F80181918F018093FC
:10308000F100F80181918F018093F100F8018191A5
:103090008F018093F100F80181918F018093F100FD
:1030A000F80181918F018093F100F80181918F01E6
:1030B0008093F100F80181918F018093F100F80174
:1030C00081918F018093F100F80181918F018093AC
:1030D000F100F80181918F018093F100F801819155
:1030E0008F018093F100F80181918F018093F100AD
:1030F000F80181918F018093F100F80181918F0196
:103100008093F100F80181918F018093F100F80123
:1031100081918F018093F100F80181918F0180935B
:10312000F100F80181918F018093F100F801819104
:103130008F018093F100F80181918F018093F1005C
:10314000F80181918F018093F100F80181918F0145
:103150008093F100F80181918F018093F100F801D3
:1031600081918F018093F100F80181918F0180930B
:10317000F100F80181918F018093F100F8018191B4
:103180008F018093F100F80181918F018093F1000C
:10319000F80181918F018093F100F80181918F01F5
:1031A0008093F100F80181918F018093F100F80183
:1031B00081918F018093F100F80181918F018093BB
:1031C000F100F80181918F018093F100F801819164
:1031D0008F018093F100F80181918F018093F100BC
:1031E000F80181918F018093F100F80181918F01A5
:1031F0008093F100F80181918F018093F100F80133
:1032000081918F018093F100F80181918F0180936A
:10321000F100F80181918F018093F100F801819113
:103220008F018093F100F80181918F018093F1006B
:10323000F80181918F018093F100F80181918F0154
:103240008093F100F80181918F018093F100F801E2
:1032500081918F018093F100F80181918F0180931A
:10326000F1008091E80085FFB093E800C0937216EA
:103270004FBF04C054E0A0E4BAE3C5E06115710596
:1032800009F07FCE80E0CF911F910F91089580913A
:10329000741608951F920F920FB60F9211248F93F8
:1032A0009F938091E1001092E10083FF11C0109282
:1032B000E90091E09093EB001092EC0092E1909382
:1032C000ED0098E09093F00010927316109274162F
:1032D00082FF13C080917316882379F08091721653
:1032E000882359F0815080937216811106C084E0C2
:1032F0008093E9008AE38093E8009F918F910F907B
:103300000FBE0F901F9018951F920F920FB60F923D
:1033100011240BB60F92EF92FF920F931F932F93EE
:103320003F934F935F936F937F938F939F93AF934D
:10333000BF93EF93FF93CF93DF931F92CDB7DEB789
:103340001092E9008091E80083FF20C19091F10084
:103350008091F1002091F1003091F100F32EE12CE9
:10336000E22A2091F1003091F100132F00E0022BAE
:103370006091F1007091F10022EF2093E800863017
:1033800009F04DC046E08CE991E0FC0125913491B3
:103390002E153F0509F007C0FC01329625913491A6
:1033A0002017310711F0079615C0FC01349645919E
:1033B00054919A01FC0136968491572F40E0462B98
:1033C0004F3F510519F010F04FEF50E0481728F427
:1033D000842F03C04150C9F6D9C07EEF9091E80018
:1033E000492F4570D9F392FDD4C0982F813108F050
:1033F00090E1A901692F07C0FA014F5F5F4FE49187
:10340000E093F10061506111F7CF290F311D891B45
:103410007093E8008111E2CF903101F3BAC085309A
:1034200051F48EEF8093E8000E9444176894E7F807
:10343000E092E300AEC0893061F59111A7C0E0923F
:10344000731610927416109272168EEF8093E80025
:1034500041E085E992E001C0C9014093E9009C0187
:103460002F5F3F4FFC0154915093EB00552361F0C7
:10347000F90124912093EC009C012D5F3F4FFC014A
:10348000329684918093ED004F5F453029F78EE1AD
:1034900078C0883051F4903809F078C00E94441701
:1034A000809173168093F10048C0813279F4913A8B
:1034B00009F06CC00E944417E4E0F1E08191809330
:1034C000F10031E0EB30F307C9F737C08032A1F4E7
:1034D000913209F05BC08091E80082FFFCCFE4E00C
:1034E000F1E08091F100819381E0EB30F807C9F7BA
:1034F0008BEF8093E80021C0823241F4913209F0D1
:1035000045C0E09274160E94441717C0811119C07B
:1035100099830E9444179981923851F40093E900ED
:103520008091EB0085FB882780F91092E90001C0AB
:1035300080E08093F1001092F1008EEF8093E8001C
:1035400028C0813011F0833009F59230F9F4EF286A
:10355000E9F40F771127902F91509430B8F49EEF33
:103560009093E8000093E900833009F40FC089E1EB
:103570008093EB0081E090E0002E01C0880F0A9458
:10358000EAF78093EA001092EA0003C081E2809398
:10359000EB000F90DF91CF91FF91EF91BF91AF9131
:1035A0009F918F917F916F915F914F913F912F915B
:1035B0001F910F91FF90EF900F900BBE0F900FBED9
:1035C0000F901F901895809184009091850069E379
:1035D00071E00E94CD3A8091781690917916681723
:1035E000790771F070937916609378168BB190E437
:1035F00089278BB90E94CE090E942B050E943A07A9
:10360000809184009091850062E772E00E94CD3A3B
:1036100080917A1690917B166817790721F0709344
:103620007B1660937A1680918400909185006DE6F8
:1036300078E10E94CD3A80917C1690917D166817B2
:10364000790709F4FFC070937D1660937C16809112
:10365000E31886FD54C0809176169091771680FF0E
:103660004EC02091F3183091F41840917E16121636
:1036700013064CF44F5F45301CF440937E160CC08B
:1036800010927E1609C0232B81F0242F215027FF92
:1036900001C024E020937E168E7F9093771680934E
:1036A00076161092F4181092F31880917E168230DC
:1036B00089F02CF4882341F08130C1F408C08330B4
:1036C00061F0843099F40CC081E090E00BC082E09E
:1036D00090E008C084E090E005C088E090E002C07F
:1036E00080E190E09093E4188093E318809176163F
:1036F0009091771680639093771680937616209139
:103700007F1680917616909177162A3058F0209186
:10371000E3183091E41820643093E4182093E31800
:10372000846010C0189B15C082FF02C08B7F0AC046
:10373000222361F02091E31826FF02C0826002C0BC
:1037400070988F77909377168093761610927F16E5
:1037500005C082FD03C02F5F20937F168091E31880
:103760009091E41886FF03C00E9481323CC08130F2
:10377000910569F42091B8183091B9184091BA18A0
:103780005091BB186DEE74E081EF94E00FC0823071
:10379000910579F42091ED183091EE184091EF18D1
:1037A0005091F0186BE073E082E095E00E941C1FDE
:1037B0001AC08430910569F42091D3183091D4183F
:1037C0004091D5185091D61867EE75E086E195E0E6
:1037D000EDCF8830910519F40E949B2004C04097DA
:1037E00011F40E94252280911E01882359F18091B5
:1037F000761686FF27C08091220187FF23C080FDB7
:103800000C94BC0E982F927085FF0DC091110C94F2
:103810002F1082FD0C94791083FD0C94C31084FF4B
:1038200011C00C940D1191110C942B0F82FD0C946E
:103830006C0F83FD0C94AD0F84FD0C94EE0F86FD90
:103840000C945711089584B7877F84BF88E10FB621
:10385000F89480936000109260000FBE90E080E8C2
:103860000FB6F89480936100909361000FBE1092A0
:10387000800084E08093810080E48AB91BB883E0F3
:103880008DB91EB82098289A80E090E00E942540CB
:1038900090910F0142E350E060E070E0891729F059
:1038A0008FE091E00E94394004C08FE091E00E94D7
:1038B00015400E948209182F0E94B6030E9473339C
:1038C0000E94D30360E080E00E94D60362E18AE2B6
:1038D00095E00E94E40361E080E00E94D60365E089
:1038E00088EF95E00E94E4032FEF85EA9EE02150E7
:1038F00080409040E1F700C0000061E08AE00E9453
:10390000D6036AE08DE395E00E94E403EFEFF3EC69
:1039100029E0E150F0402040E1F700C0000062E003
:1039200088E00E94D6036CE088E495E00E94E403FE
:103930008FEF91E1EAE781509040E040E1F700C06D
:10394000000063E080E00E94D6036EE085E595E02C
:103950000E94E40324E635E03F932F9329E635E007
:103960003F932F93C2E6D8E1DF93CF930E94883F25
:10397000FE0101900020E9F73197EC1BFD0B63E09D
:1039800084E18E1B0E94D603FE0101900020E9F71E
:10399000BF01615071096C1B7D0BCE010E94E403D5
:1039A000FFEF27EA81E6F15020408040E1F700C0B8
:1039B000000063E080E00E94D6030F900F900F900C
:1039C0000F900F900F9064E1113019F48DE695E09F
:1039D00007C0123019F482E895E002C087E995E04B
:1039E0000E94E40380911E01882359F00E94491728
:1039F00080917616909177168F7B909377168093AF
:103A000076169FEFE3EDF0E39150E040F040E1F7F0
:103A100000C000000E94FB2481E090E09093E41835
:103A20008093E31880917616909177168063909337
:103A30007716809376160E94E31A80911E018823E0
:103A4000D1F30E946217882389F00E94471980FFF2
:103A50000DC08091761690917716806490937716BA
:103A600080937616719A0E940917E5CF8091761699
:103A7000909177168F7B9093771680937616719836
:103A8000DACFEF92FF920F931F93CF93DF93809142
:103A900041018F5F80934101809176169091771656
:103AA00090FF08C09E7F909377168093761682E3EE
:103AB0008093410180914101823389F51092410147
:103AC0000E94D3030E948B3B8C010E948B3BFC0124
:103AD000C8E2D1E0DE010D900020E9F77D01C801C8
:103AE00064E070E00E94E13A482F6EE371E06E19E5
:103AF0007F09CF010E94CD3A642F0E94D603FE01B8
:103B000001900020E9F7BF0169527140CE01DF91B9
:103B1000CF911F910F91FF90EF900C94E403DF91F0
:103B2000CF911F910F91FF90EF9008950F931F93E6
:103B3000CF93DF9300D000D000D0CDB7DEB7082FF1
:103B4000162F2D833E834B835C837A8399830E9457
:103B5000D30360E080E00E94D603A02F9981B92FA3
:103B6000FD0101900020E9F73197EA1BFB0B6E2F56
:103B7000802F0E94E40361E080E00E94D603A12F21
:103B80007A81B72FFD0101900020E9F73197EA1BF8
:103B9000FB0B6E2F812F972F0E94E40362E080E0E1
:103BA0000E94D6034B81E42F5C81F52FDF010D903D
:103BB0000020E9F7BD01615071096E1B7F0BCA013E
:103BC0000E94E40363E080E00E94D6032D81E22F8F
:103BD0003E81F32FDF010D900020E9F7BD01615018
:103BE00071096E1B7F0BC90126960FB6F894DEBFD4
:103BF0000FBECDBFDF91CF911F910F910C94E403C5
:103C00004F925F926F927F928F929F92AF92BF92EC
:103C1000CF92DF92EF92FF92CF93DF9300D000D04C
:103C2000CDB7DEB72091801634E0239FF001112438
:103C3000EF57F94E6083718382839383822F8F5F66
:103C4000843619F08093801602C010928016E1E845
:103C5000F6E1812C912C540181919191A191B19126
:103C600088169906AA06BB0610F44C015D0148E1CE
:103C7000E131F40789F780912701282F30E040E0F7
:103C800050E029833A834B835C83412C512C3201D1
:103C9000439408C0AAE0B0E0A30192010E94303B27
:103CA0002B013C01A301920169817A818B819C8166
:103CB0000E94B13A6B017C01681579058A059B0564
:103CC00048F3A0912601B0E00E94303B69837A83DB
:103CD0008B839C8386169706A806B90680F4A0916C
:103CE0002501B0E00E94303B6B017C0186169706EF
:103CF000A806B90620F0C980DA80EB80FC80B60106
:103D0000C7010F900F900F900F90DF91CF91FF9010
:103D1000EF90DF90CF90BF90AF909F908F907F906B
:103D20006F905F904F9008954F925F926F927F9245
:103D30008F929F92AF92BF92CF92DF92EF92FF92BB
:103D40000F931F93CF93DF9300D000D0CDB7DEB792
:103D50002B013C01CA01B901E982FA820B831C8361
:103D6000850174012AE0421651046104710448F18E
:103D70000E9456344B015C0169817A818B819C8160
:103D80000E945634AB01BC0115C034E076946794B0
:103D9000579447943A95D1F7E4E0B694A794979452
:103DA0008794EA95D1F7F4E076956795579547950E
:103DB000FA95D1F74114510481E06806710428F79F
:103DC0001DC024E0440C551C661C771C2A95D1F7B5
:103DD00020E030E040E851E40E9483350E945634F0
:103DE0004B0120E030E040E851E469817A818B8129
:103DF0009C810E9483350E945634AB01F6015182AA
:103E00004082F80191828082F701518340830F90B4
:103E10000F900F900F90DF91CF911F910F91FF9016
:103E2000EF90DF90CF90BF90AF909F908F907F905A
:103E30006F905F904F9008952F923F924F925F92B4
:103E40006F927F928F929F92AF92BF92CF92DF92AA
:103E5000EF92FF920F931F93CF93DF93CDB7DEB70F
:103E60002A970FB6F894DEBF0FBECDBF8C011B01A1
:103E70002F83388749875A871E821D821C821B82A6
:103E80001A8219826091D3187091D4188091D51834
:103E90009091D6180E9456340E94001E2B013C01BE
:103EA000809176169091771685FF27C084FF10C009
:103EB0008F7E9093771680937616109211182CEAC5
:103EC00035E0A80169EE75E08DEB95E00E94961D46
:103ED000809111188F5F8A3018F48093111812C1E5
:103EE0001092111880917616909177168F7D9160BF
:103EF000909377168093761605C120913D013091FD
:103F00003E0140913F01509140016091D318709162
:103F1000D4188091D5189091D6180E94343518166F
:103F20003CF08BE0481651046104710408F4E8C0C9
:103F300060E080E00E94D603E090DF18F090E01887
:103F40000091E1181091E218A3E08A2E912C8C0EBA
:103F50009D1EB5E0AB2EB12CAC0EBD1ECC24C3947F
:103F6000D12CCC0EDD1E2F81388549855A85C301A1
:103F7000B2010E94941E49815A816B817C8124E1A7
:103F80008D819E810E94023361E080E00E94D60311
:103F900024E148EE53E060E070E08091F1189091E8
:103FA000F2180E94023362E087E00E94D60363E0C9
:103FB00087EE95E00E94E40362E080E00E94D60371
:103FC00064E083EC95E00E94E4030E94300A02E67C
:103FD00018E1F80101900020E9F7BF016150710973
:103FE000601B710BC8010E94E40363E088E00E943B
:103FF000D60362E088EE95E00E94E40363E080E08F
:104000000E94D60365E088EC95E00E94E403C301BA
:10401000B2010E9482340E94F90DF8010190002043
:10402000E9F7BF0161507109601B710BC8010E9463
:10403000E40362E083E10E94D60361E089EE95E04B
:104040000E94E40362E08AE00E94D60361E089EE08
:1040500095E00E94E40363E0C1010E94E4038091C3
:10406000D218882349F062E08DE00E94D60361E017
:1040700089E699E00E94E40362E08EE00E94D603A4
:104080006F81788589859A850E94100B02E618E178
:10409000F80101900020E9F73197E01BF10B6E2F3A
:1040A000C8010E94E40363E083E10E94D60361E05B
:1040B00089EE95E00E94E40363E08AE00E94D60363
:1040C00064E08EEC95E00E94E40363E08EE00E94E1
:1040D000D6036091DF187091E0188091E1189091FB
:1040E000E2180E94100BF80101900020E9F7BF01CF
:1040F00061507109601B710BC8010E94E40302C08A
:104100000E94411D2A960FB6F894DEBF0FBECDBFA8
:10411000DF91CF911F910F91FF90EF90DF90CF90A3
:10412000BF90AF909F908F907F906F905F904F90D7
:104130003F902F9008954F925F926F927F928F924F
:104140009F92AF92BF92CF92DF92EF92FF920F9326
:104150001F93CF93DF9300D000D000D0CDB7DEB750
:104160001E821D821C821B821A8219826091D318C2
:104170007091D4188091D5189091D6180E94563419
:104180000E94001E2B013C018091761690917716BB
:1041900085FF28C084FF11C08F7E9093771680938F
:1041A0007616109212182CEA35E043ED55E069EED0
:1041B00075E08DEB95E00E94961D809112188F5F3F
:1041C0008A3018F48093121829C110921218809125
:1041D0007616909177168F7D9160909377168093E5
:1041E00076161CC120913D0130913E0140913F0166
:1041F000509140016091D3187091D4188091D518D6
:104200009091D6180E94343518163CF08BE0481671
:1042100051046104710408F4FFC060E080E00E9472
:10422000D603E090DF18F090E0180091E1181091AB
:10423000E2182091D3183091D4184091D51850919C
:10424000D61893E0892E912C8C0E9D1E65E0A62E2B
:10425000B12CAC0EBD1ECC24C394D12CCC0EDD1ED3
:10426000C301B2010E94941E49815A816B817C81F5
:1042700024E18D819E810E94023361E080E00E94F2
:10428000D60324E148EE53E060E070E08091F1183D
:104290009091F2180E94023362E087E00E94D603F8
:1042A00063E087EE95E00E94E40362E080E00E9414
:1042B000D60364E083EC95E00E94E4030E94300A98
:1042C00002E618E1F80101900020E9F7BF01615012
:1042D0007109601B710BC8010E94E40363E088E070
:1042E0000E94D60362E088EE95E00E94E40363E05A
:1042F00080E00E94D60365E088EC95E00E94E4032C
:10430000C301B2010E9482340E94F90DF8010190AC
:104310000020E9F7BF0161507109601B710BC801F2
:104320000E94E40362E08AE00E94D60361E089EE25
:1043300095E00E94E40362E08FE00E94D60365E00E
:1043400085EE95E00E94E4038091D218882349F01D
:1043500062E083E10E94D60361E089E699E00E9471
:10436000E40362E08AE00E94D60320E030E040E20D
:1043700051E46091D7187091D8188091D918909114
:10438000DA180E9483350E945134CB010E94BA0A88
:1043900002E618E1F80101900020E9F7BF01615041
:1043A0007109601B710BC8010E94E40363E08AE09D
:1043B0000E94D60361E089EE95E00E94E40363E089
:1043C00081E10E94D60363E08BEE95E00E94E40356
:1043D00063E08AE00E94D60320E030E040E251E44E
:1043E0006091C0187091C1188091C2189091C31843
:1043F0000E9483350E945134CB010E94BA0AF80111
:1044000001900020E9F7BF0161507109601B710B39
:10441000C8010E94E40302C00E94411D26960FB607
:10442000F894DEBF0FBECDBFDF91CF911F910F91EA
:10443000FF90EF90DF90CF90BF90AF909F908F90C4
:104440007F906F905F904F9008954F925F926F9220
:104450007F928F929F92AF92BF92CF92DF92EF9214
:10446000FF920F931F93CF93DF9300D000D000D023
:10447000CDB7DEB71E821D821C821B821A82198272
:104480006091C8187091C9188091CA189091CB1882
:104490000E9456340E94001E2B013C01809176162A
:1044A0009091771685FF28C084FF11C08F7E90936E
:1044B000771680937616109213182FEE35E04EEF94
:1044C00055E063E176E08DEB95E00E94961D8091CA
:1044D00013188F5F8A3018F48093131854C1109208
:1044E000131880917616909177168F7D9160909336
:1044F00077168093761647C120913D0130913E0199
:1045000040913F01509140016091D3187091D418AF
:104510008091D5189091D6180E94343518163CF029
:104520008BE0481651046104710408F42AC1E0903C
:10453000C418F090C5180091C6181091C7182091A2
:10454000C8183091C9184091CA185091CB18E3E0AF
:104550008E2E912C8C0E9D1EF5E0AF2EB12CAC0E44
:10456000BD1ECC24C394D12CCC0EDD1EC301B201E0
:104570000E94941E60E080E00E94D6038091D218D1
:1045800049815A812EE060E070E0811103C08D8185
:104590009E8102C08B819C810E9402336091C81869
:1045A0007091C9188091CA189091CB180E94100B75
:1045B000E2E6F8E1DF010D900020E9F7BD0161506E
:1045C00071096E1B7F0BCF010E94E40361E080E064
:1045D0000E94D6038091D21849815A812EE060E072
:1045E00070E0811103C08B819C8102C08D819E810E
:1045F0000E9402336091C4187091C5188091C6184A
:104600009091C7180E94100B02E618E1F801019082
:104610000020E9F7BF0161507109601B710BC801EF
:104620000E94E40362E087E00E94D60363E087EE25
:1046300095E00E94E40362E080E00E94D60364E01B
:1046400083EC95E00E94E4030E94300AD8010D90AB
:104650000020E9F7BD0161507109601B710BC801B1
:104660000E94E40363E088E00E94D60362E088EEE3
:1046700095E00E94E40363E080E00E94D60365E0D9
:1046800088EC95E00E94E403C301B2010E948234E9
:104690000E94F90DF80101900020E9F7BF01615077
:1046A0007109601B710BC8010E94E40362E08AE09B
:1046B0000E94D60361E089EE95E00E94E40362E087
:1046C0008FE00E94D60365E085EE95E00E94E4034A
:1046D00062E08AE00E94D60320E030E040E251E44C
:1046E0006091E9187091EA188091EB189091EC189C
:1046F0000E9483350E945134CB010E94BA0AD8012E
:104700000D900020E9F7BD0161507109601B710B2C
:10471000C8010E94E40363E08AE00E94D60361E0DE
:1047200089EE95E00E94E40363E08FE00E94D603E7
:1047300065E085EE95E00E94E40363E08AE00E9474
:10474000D60320E030E040E251E46091DB18709144
:10475000DC188091DD189091DE180E9483350E944C
:104760005134CB010E94BA0AF80101900020E9F708
:10477000BF0161507109601B710BC8010E94E40305
:1047800002C00E94411D26960FB6F894DEBF0FBEF0
:10479000CDBFDF91CF911F910F91FF90EF90DF90F0
:1047A000CF90BF90AF909F908F907F906F905F90D1
:1047B0004F900895CF92DF92EF92FF920F931F9345
:1047C000CF93DF930E94D30360E080E00E94D60382
:1047D000C091B218D091B318BE01882777FD80959B
:1047E000982F0E9484342AE037ED43E250E40E947F
:1047F000833520E030E040E859E30E94833520E033
:1048000030E04AE754E40E9483350E945634B8EE03
:10481000CB2EB3E0DB2ECB01B6010E94CD3A9F93A5
:104820008F937F936F93DF93CF930FE116E01F93E6
:104830000F93C2E6D8E1DF93CF930E94883FFE0139
:1048400001900020E9F7BF01615071096C1B7D0BDD
:10485000CE010E94E40361E080E00E94D603E09074
:10486000CC18F090CD18B701882777FD8095982F48
:104870000E9484342AE037ED43E250E40E948335FD
:1048800020E030E040E859E30E94833520E030E04A
:104890004AE754E40E9483350E945634CB01B601A6
:1048A0000E94CD3A9F938F937F936F93FF92EF92E5
:1048B0001F930F93DF93CF930E94883FFE010190D7
:1048C0000020E9F7BF01615071096C1B7D0BCE011F
:1048D0000E94E40362E080E00E94D603E2E1F1E09E
:1048E00081818F9380818F931DE2E12E16E0F12E5E
:1048F000FF92EF92DF93CF930E94883FFE010190D9
:104900000020E9F7BF01615071096C1B7D0BCE01DE
:104910000E94E403E6E1F1E081818F9380818F932F
:10492000E4E1F1E081818F9380818F9302E316E0CF
:104930001F930F93DF93CF930E94883FFE01019056
:104940000020E9F7BF01615071096C1B7D0B8DB729
:104950009EB782960FB6F8949EBF0FBE8DBFCE0154
:104960000E94E40363E080E00E94D603E8E1F1E006
:1049700081818F9380818F93FF92EF92DF93CF930A
:104980000E94883FFE0101900020E9F7BF016150BD
:1049900071096C1B7D0BCE010E94E403ECE1F1E098
:1049A00081818F9380818F93EAE1F1E081818F9300
:1049B00080818F931F930F93DF93CF930E94883F43
:1049C00009900020E9F72197C256D841EDB7FEB70C
:1049D0003E960FB6F894FEBF0FBEEDBF6C2F82E679
:1049E00098E1DF91CF911F910F91FF90EF90DF90B1
:1049F000CF900C94E4036F98779A6E98769A209AE9
:104A0000289AEAE6F0E0808180618083EE9A7894CB
:104A100008951F920F920FB60F9211242F935F9358
:104A20006F937F938F939F93AF93BF938CB19CB100
:104A300096FB992790F921E092278095881F882777
:104A4000881F20911418981711F02F5F01C0215072
:104A50002093141880911418992787FD90956091E0
:104A60001001709111010E94E13A8091F318909128
:104A7000F418680F791F7093F4186093F318672B7C
:104A800059F01092141880917616909177168160E3
:104A90009093771680937616BF91AF919F918F91E7
:104AA0007F916F915F912F910F900FBE0F901F908C
:104AB00018956F927F928F929F92AF92BF92CF92F2
:104AC000DF92EF92FF920F931F93CF93DF93EC014E
:104AD000A62E142FF22E622F802F0E94D603D02EE6
:104AE00006C061E089EE95E00E94E403D39483E17F
:104AF0008D15B8F7E1E0EE1518F0112329F126C065
:104B00006F2D6F5F802F0E94D603D02E06C061E00C
:104B100089EE95E00E94E403D394F3E1FD15B8F724
:104B200082E0E81651F36F2D6E5F802F0E94D6034E
:104B3000D02E06C061E089EE95E00E94E403D39494
:104B4000E3E1ED15B8F7D9CFDA2C01C0D12EDA9414
:104B5000F1E0FE1508F077C0702E739473946F2DFA
:104B6000872D0E94D603FE01ED0DF11DED0DF11D07
:104B70006081718182E698E10E942D3F82E6882E55
:104B800088E1982EF40101900020E9F73197E819A7
:104B9000F9096E2FC4010E94E4036F2D6F5F802F0F
:104BA0000E94D603C12ED12CF601EE0FFF1FEC0F91
:104BB000FD1F81818F9380818F938AE396E09F937D
:104BC0008F939F928F920E94883FF4010190002062
:104BD000E9F73197E819F9096E2FC4010E94E4033F
:104BE000B12C450181E0881A91080F900F900F9029
:104BF0000F900F900F90C814D90419F0612E639490
:104C000001C0612C6F2D6E5F872D0E94D603FE01BF
:104C1000E60DF11DE60DF11D6081718182E698E1DE
:104C20000E942D3FE2E6F8E101900020E9F731977C
:104C3000E256F8416E2F82E698E10E94E403E4E038
:104C4000EE16B9F06AC06F2D802F0E94D603FE01C8
:104C5000E10FF11DE10FF11D81818F9380818F9311
:104C60008AE396E09F938F93C2E6D8E1DF93CF93D8
:104C700032C0C814D90441F0F2E0AF1AB108CA1426
:104C8000DB0421F01E5F03C011E001C010E083E0EF
:104C9000F80E6F2D802F0E94D60306C061E089EECA
:104CA00095E00E94E4030F5F0431C0F36F2D872D60
:104CB0000E94D603FE01E10FF11DE10FF11D81817C
:104CC0008F9380818F938FE396E09F938F93C2E6BB
:104CD000D8E1DF93CF930E94883FFE01019000202E
:104CE000E9F7BF01615071096C1B7D0B0F900F90AC
:104CF0000F900F900F900F90CE01DF91CF911F91E9
:104D00000F91FF90EF90DF90CF90BF90AF909F906A
:104D10008F907F906F900C94E403DF91CF911F915F
:104D20000F91FF90EF90DF90CF90BF90AF909F904A
:104D30008F907F906F9008950E94DA23809176166D
:104D40009091771681FF26C08D7F90937716809380
:104D500076160E94D30361E080E00E94D6036FE0E4
:104D600084E496E00E94E4032FEF83EC99E0215065
:104D700080409040E1F700C000008091E3189091DE
:104D8000E4188F7B9093E4188093E3181092161820
:104D9000109215180895CF93DF9380917616909115
:104DA000771680FF21C02091F3183091F418121665
:104DB000130634F420911F01283258F42F5F07C0E6
:104DC000232B39F020911F01203118F0215020931E
:104DD0001F018E7F90937716809376161092F418A9
:104DE0001092F3181092171880911718811158C05B
:104DF0008FEF809317180E94D30360E080E00E9439
:104E0000D60364E184E596E00E94E40361E080E07B
:104E10000E94D6036BE089E696E00E94E40380914D
:104E20001F01883231F463E089E59AE00E94E403CF
:104E300025C06AE00E94C13A1F929F931F928F93F0
:104E40008CE998E09F938F93C2E6D8E1DF93CF93EC
:104E50000E94883FFE0101900020E9F7BF016150E8
:104E600071096C1B7D0BCE010E94E4038DB79EB7C8
:104E700008960FB6F8949EBF0FBE8DBF62E080E02B
:104E80000E94D60363E185E796E00E94E40363E0B5
:104E900080E00E94D60363E189E896E00E94E40383
:104EA000809176169091771681FF3CC08D7F90930C
:104EB0007716809376160E94D30361E081E00E940A
:104EC000D60380E190E00E94254090911F01891750
:104ED00061F041E050E060E170E08FE191E00E941C
:104EE00039406CE08DE996E003C06FE084E496E021
:104EF0000E94E4039FEFE3ECF9E09150E040F040C2
:104F0000E1F700C000008091E3189091E4188F7BD6
:104F10009093E4188093E3181092161810921518C5
:104F200010921718DF91CF910895EF920F9380910F
:104F30002001909121018130910519F410921818E7
:104F400016C08A30910511F481E00FC084369105B6
:104F500011F482E00AC0883E23E0920711F483E056
:104F600004C08031974219F484E08093181880912E
:104F700076169091771680FF1DC02091F31830911E
:104F8000F4181216130624F4209118182F5F05C088
:104F9000232B29F0209118182150209318188E7F68
:104FA00090937716809376161092F4181092F31857
:104FB0001092191880911918811155C08FEF8093A4
:104FC00019186091181801C065506530ECF701C0E0
:104FD0006B5F67FDFDCF60931818772767FD7095AD
:104FE000872F972F0E9484349B01AC0160E070E012
:104FF00080E291E40E94E6350E94563470932101CC
:10500000609320010E94D30360E080E00E94D603F9
:1050100060E18AEA96E00E94E40361E080E00E9499
:10502000D60366E08BEB96E00E94E403EE24E39463
:1050300006E021E04091181865E088E691E00E94C2
:10504000592562E080E00E94D60364E182EC96E09C
:105050000E94E40363E080E00E94D60364E187EDF0
:1050600096E00E94E4038091761681FF43C00E947F
:10507000D30361E080E00E94D60380917616909180
:1050800077168D7F909377168093761681E190E066
:105090000E94334020912001309121018217930713
:1050A00061F042E050E061E170E080E291E00E9456
:1050B00039406CE08DE996E003C06FE084E496E04F
:1050C0000E94E4038FEF93EC29E081509040204050
:1050D000E1F700C000008091E3189091E4188F7B05
:1050E0009093E4188093E3181092161810921518F4
:1050F000109219180F91EF900895EF920F938091ED
:10510000230190912401843F21E0920711F481E072
:1051100004C0883E934021F482E080931A1802C0B4
:1051200010921A18809176169091771680FF1DC004
:105130002091F3183091F4181216130624F42091DC
:105140001A182F5F05C0232B29F020911A1821501F
:1051500020931A188E7F909377168093761610926C
:10516000F4181092F31810921B1880911B188111DB
:1051700050C08FEF80931B1880911A1801C0835084
:105180008330ECF701C08D5F87FDFDCF80931A1847
:10519000813019F484EF91E007C0823019F488EE71
:1051A00093E002C088EC90E0909324018093230167
:1051B0000E94D30360E080E00E94D60364E18CEE9D
:1051C00096E00E94E40361E080E00E94D60366E07E
:1051D0008BEB96E00E94E403EE24E39406E021E0EA
:1051E00040911A1863E082E691E00E94592562E03E
:1051F00080E00E94D60361E181E097E00E94E40331
:1052000063E080E00E94D60363E183E197E00E94BF
:10521000E4038091761681FF43C00E94D30361E0CE
:1052200080E00E94D60380917616909177168D7F4C
:10523000909377168093761684E190E00E94334035
:1052400020912301309124018217930761F042E0FD
:1052500050E064E170E083E291E00E9439406CE04C
:105260008DE996E003C06FE084E496E00E94E403D9
:105270008FEF93EC29E0815090402040E1F700C08F
:1052800000008091E3189091E4188F7B9093E418CC
:105290008093E318109216181092151810921B188C
:1052A0000F91EF900895CF92DF92EF92FF920F93BC
:1052B000C0903D01D0903E01E0903F01F090400150
:1052C00020E030E0A901C701B6010E94E533811159
:1052D00003C010921C180EC0C701B6010E943835D9
:1052E00020E030E040E850E40E9481330E945134D5
:1052F00060931C18809176169091771680FF1DC0E0
:105300002091F3183091F4181216130624F420910A
:105310001C182F5F05C0232B29F020911C18215049
:1053200020931C188E7F9093771680937616109298
:10533000F4181092F31810921D1880911D18811105
:105340006AC08FEF80931D1860911C1801C06650D1
:105350006630ECF701C06A5F67FDFDCF60931C18F3
:10536000611109C010923D0110923E0110923F015F
:10537000109240011FC0772767FD70956450710936
:10538000882777FD8095982F0E9484349B01AC017B
:1053900060E070E080E291E40E94E635462F572FEE
:1053A000682F792F40933D0150933E0160933F0158
:1053B000709340010E94D30360E080E00E94D60316
:1053C00064E187E297E00E94E40361E080E00E94EC
:1053D000D60366E08BEB96E00E94E403EE24E394B0
:1053E00006E021E040911C1866E086E591E00E940D
:1053F000592562E080E00E94D60364E182EC96E0E9
:105400000E94E40363E080E00E94D60364E18CE341
:1054100097E00E94E4038091761681FF48C00E94C5
:10542000D30361E080E00E94D603809176169091CC
:1054300077168D7F90937716809376168EE290E0A4
:105440000E942D4020913D0130913E0140913F014D
:10545000509140010E94E533882361F044E050E020
:105460006EE270E08DE391E00E9439406CE08DE9DE
:1054700096E003C06FE084E496E00E94E4032FEF1F
:1054800083EC99E0215080409040E1F700C000009B
:105490008091E3189091E4188F7B9093E4188093A7
:1054A000E318109216181092151810921D180F91EB
:1054B000FF90EF90DF90CF9008951F93CF93DF93ED
:1054C0008091151890911618883522E0920729F0DE
:1054D0008935924021F411E003C010E001C012E0D0
:1054E000412F50E0FA01E15FFE4F268930E0309312
:1054F0001F1820931E18809176169091771680FFC2
:105500001DC06091F3187091F418161617061CF45C
:105510002F5F3F4F04C0672B79F021503109309342
:105520001F1820931E188E7F9093771680937616FF
:105530001092F4181092F3181092201880912018ED
:105540008111ECC08FEF8093201880912501E091AC
:105550001E18F0911F1811111AC1E436F10534F02C
:1055600083E690E090931F1880931E1880911E1878
:1055700090911F1818161906B4F081E090E09093EE
:105580001F1880931E180FC090931F1880931E1829
:1055900080911E1890911F188217930724F430935E
:1055A0001F1820931E18FA01E15FFE4F80911E180C
:1055B000868B409125012AE0429FC0011124209151
:1055C000260130E0281739074CF0342F330F232FF2
:1055D000220F220F230F2150209326012091270113
:1055E00030E0281739074CF0942F990F892F880F36
:1055F000880F890F8150809327018091260184179D
:1056000010F44093260180912701841710F44093F1
:105610002701113049F480912601909127019817B4
:1056200068F4809327010AC0123041F48091270169
:1056300090912601891710F4809326010E94D303CC
:1056400060E080E00E94D60364E181E597E00E947B
:10565000E40361E086E00E94D603809125011F9259
:105660008F9386E697E09F938F93C2E6D8E1DF930E
:10567000CF930E94883FFE0101900020E9F7319707
:10568000EC1BFD0B6E2FCE010E94E40362E086E06E
:105690000E94D603809126011F928F9386E797E0A0
:1056A0009F938F93DF93CF930E94883FFE010190D9
:1056B0000020E9F73197EC1BFD0B6E2FCE010E9405
:1056C000E40363E086E00E94D603809127011F92E5
:1056D0008F9386E897E09F938F93DF93CF930E94F9
:1056E000883F09900020E9F72197C256D8416C2FD6
:1056F00082E698E10E94E403612F6F5F80E00E94E0
:10570000D60364E086E997E00E94E4038DB79EB774
:1057100042960FB6F8949EBF0FBE8DBF809176164D
:105720009091771681FF43C08D7F90937716809379
:1057300076160E94D30361E081E00E94D60343E025
:1057400050E066E170E085E291E00E9439406CE053
:105750008DE996E00E94E4039FEF23EC69E091500D
:1057600020406040E1F700C000008091E318909174
:10577000E41880649093E4188093E31886E090E046
:1057800090931618809315181092201810C0282F87
:1057900030E06AE0869FC00111248436910514F040
:1057A00083E690E08E179F070CF4EECEF1CEDF91EA
:1057B000CF911F910895CF93DF93809176169091AA
:1057C000771680FF1DC02091F3183091F41812163F
:1057D000130624F4209121182F5F05C0232B71F0AC
:1057E000209121182150209321188E7F90937716B5
:1057F000809376161092F4181092F31810922218D3
:105800008091221881118CC08FEF80932218809193
:10581000211801C084508430ECF701C08C5F87FDF3
:10582000FDCF809321180E94D30360E080E00E94A6
:10583000D60380912118833024F463E18BE997E04B
:1058400003C064E18FEA97E00E94E40361E086E030
:105850000E94D603809125011F928F9386E697E0E0
:105860009F938F93C2E6D8E1DF93CF930E94883F46
:10587000FE0101900020E9F7BF01615071096C1B26
:105880007D0BCE010E94E40362E086E00E94D60315
:10589000809126011F928F9386E797E09F938F93C5
:1058A000DF93CF930E94883FFE0101900020E9F72B
:1058B000BF01615071096C1B7D0BCE010E94E40396
:1058C00063E086E00E94D603809127011F928F93A8
:1058D00086E897E09F938F93DF93CF930E94883F52
:1058E00009900020E9F72197C256D8416C2F82E633
:1058F00098E10E94E403609121188DB79EB742960B
:105900000FB6F8949EBF0FBE8DBF63304CF46F5F2F
:1059100084E00E94D60362E087E998E00E94E403F5
:10592000809176169091771681FF3DC08D7F909380
:1059300077168093761680912118813039F0823065
:1059400041F081110DC088E592E005C089E592E043
:1059500002C08AE592E0909316188093151821C032
:105960000E94D30361E080E00E94D60364E184ECEE
:1059700097E00E94E4039FEFE3ECF9E09150E040F0
:10598000F040E1F700C000008091E3189091E41826
:105990008F7B9093E4188093E3181092161810925E
:1059A000151810922218DF91CF910895EF920F935E
:1059B00040911E014093231880917616909177169E
:1059C00080FF19C02091F3183091F41812161306B5
:1059D00014F44F5F03C0232B19F041504093231858
:1059E0008E7F90937716809376161092F41810920B
:1059F000F3181092241880912418811142C08FEF5F
:105A0000809324188091231801C082508230ECF7D3
:105A100001C08E5F87FDFDCF8093231880931E0108
:105A20000E94D30360E080E00E94D60364E189ED28
:105A300097E00E94E40361E080E00E94D60366E004
:105A40008BEB96E00E94E403EE24E39400E021E077
:105A50004091231862E082E591E00E94592562E0BE
:105A600080E00E94D60364E18EEE97E00E94E4039A
:105A700063E080E00E94D60364E183E098E00E9446
:105A8000E403809176169091771681FF84C08D7F14
:105A900090937716809376168FE090E00E942540D1
:105AA00090911E01891709F442C041E050E06FE077
:105AB00070E08EE191E00E94394061E081E00E9457
:105AC000D6036CE08DE996E00E94E4032FEF83ECAF
:105AD00099E0215080409040E1F700C000000E9412
