:100000000C9419020C9438020C9438020C943802A7
:100010000C9438020C9438020C9438020C94552A33
:100020000C9438020C9438020C94121C0C944C1C46
:100030000C9438020C9438020C9438020C94380258
:100040000C9438020C9438020C9438020C94380248
:100050000C9438020C9438020C9438020C94380238
:100060000C9438020C9438020C9438020C94380228
:100070000C9438020C9438020C9438020C94380218
:100080000C9438020C9438020C9438020C94380208
:100090000C9438020C943802F91BF41BEF1BEA1B7A
:1000A000E51BE01BDB1BD61BD11BCC1BC71BC21BDC
:1000B000BD1BB81BB31BAE1BA91BA41B9F1B9A1B0C
:1000C000951B901B8B1B861B811B7C1B771B721B3C
:1000D0006D1B681B631B5E1B591B541B4F1B4A1B6C
:1000E000451B401B3B1B361B311B2C1B271B221B9C
:1000F0001D1B181B131B0E1B091B041BFF1AFA1ACE
:10010000F51AF01AEB1AE61AE11ADC1AD71AD21A03
:10011000CD1AC81AC31ABE1AB91A05A84CCDB2D442
:100120004EB93836A9020C50B9918688083CA6AA67
:10013000AA2ABE000000803F08000000BE922449A9
:10014000123EABAAAA2ABECDCCCC4C3E0000008009
:10015000BEABAAAAAA3E00000000BF000000803F7C
:100160000000000000084178D3BB4387D1133D193C
:100170000E3CC3BD4282AD2B3E68EC8276BED98F69
:10018000E1A93E4C80EFFFBE01C4FF7F3F000000AD
:10019000000007634236B79BD8A71A39685618AED5
:1001A000BAAB558C1D3CB7CC5763BD6DEDFD753EAC
:1001B000F6177231BF000000803F00010000A1026D
:1001C00012000200005E0243000300005A02040114
:1001D0000309041C023C02030904F2012803030979
:1001E00004E4010C0C03310032003300340035000C
:1001F0000000280350006F007700650072002000A7
:1002000061006E006400200053005700520020007F
:100210004D00650074006500720000003C034C0056
:100220006F00660074007500720020004A006F00C5
:100230006E006100730073006F006E002C002000E0
:100240005400460033004C004A002F005600450081
:1002500032004C004A00580000000403090409025F
:100260004300020100C03209040000010202010043
:1002700005240010010524010101042402060524BF
:100280000600010705820310004009040100020A6C
:10029000000000070503024000000705840240003B
:1002A000001201000202000010EB034B20000101CC
:1002B0000203010001C112018036018136000000F5
:1002C0001500000000001010151010000000181894
:1002D0001D18180000001C1C1D1C1C0000001E1E08
:1002E0001E1E1E0000001F1F1F1F1F000006060607
:1002F00016060606066E616E00696E6600494E4679
:10030000494E4954594E414E000020410000C84218
:1003100000401C4620BCBE4CCA1B0E5AAEC59D7484
:10032000CDCCCC3D0AD7233C17B7D13877CC2B3274
:100330009595E6241FB14F0A00407A10F35A00A0A9
:10034000724E18090010A5D4E80000E8764817009E
:1003500000E40B54020000CA9A3B000000E1F505DE
:10036000000080969800000040420F000000A08628
:1003700001000000102700000000E803000000005A
:100380006400000000000A000000000001000000FE
:1003900000002C76D888DC674F0823DFC1DFAE5918
:1003A000E1B1B796E5E3E453C63AE651997696E8AB
:1003B000E6C28426EB898C9B62ED407C6FFCEFBC2F
:1003C0009C9F40F2BAA56FA5F490055A2AF75C935A
:1003D0006B6CF9676DC11BFCE0E40D47FEF520E690
:1003E000B500D0ED902E0300943577050080841E73
:1003F000080000204E0A000000C80C333333330FCE
:10040000986E12831141EF8D2114893BE65516CF6A
:10041000FEE6DB18D1844B381BF77C1D901DA4BB76
:10042000E424203284725E228100C9F124ECA1E52B
:100430003D2711241FBECFEFD0E2DEBFCDBF1CE0B1
:10044000A0E0B1E0ECE5FCE800E00BBF02C00790E3
:100450000D92AE36B107D9F72AE1AEE6BCE001C095
:100460001D92AA32B207E1F70E942B1F0C942C4672
:100470000C940000409841984298389A399A3A9AD8
:1004800087B18F7087B988B1806F88B90895409817
:1004900087B18F7087B988B1806F88B9419A429AC5
:1004A00066C042980000000000000000000000004C
:1004B000000000000000000000000000000000003C
:1004C000000000000000000000000000000000002C
:1004D000000000000000000000000000429A000040
:1004E000000000000000000000000000000000000C
:1004F00000000000000000000000000000000000FC
:1005000000000000000000000000000000000000EB
:100510000000000000004298000000000000000001
:1005200000000000000000000000000000000000CB
:1005300000000000000000000000000000000000BB
:1005400000000000000000000000000000000000AB
:10055000429A0000000000000000000000000000BF
:10056000000000000000000000000000000000008B
:10057000000000000000000000000000000000007B
:100580000000000000000000000037998ACF429868
:100590000895CF93DF931F92CDB7DEB789830E9472
:1005A000470240984198429A97B1906F97B928B105
:1005B0008981982F907F2F70922B98B900000000AE
:1005C000000000000000000000000000000000002B
:1005D000000000000000000000000000000000001B
:1005E000000000000000000000000000000000000B
:1005F0000000000042980000000000000000000021
:1006000000000000000000000000000000000000EA
:1006100000000000000000000000000000000000DA
:100620000000000000000000000000000000429AEE
:1006300028B130E1839FC00111242F70282B28B9E5
:1006400000000000000000000000000000000000AA
:10065000000000000000000000000000000000009A
:10066000000000000000000000000000000000008A
:100670000000000000000000429887B18F7087B929
:1006800088B1806F88B90F90DF91CF910895CF9393
:10069000DF931F92CDB7DEB789830E944702409A4D
:1006A0004198429A97B1906F97B928B18981982F54
:1006B000907F2F70922B98B900000000000000007E
:1006C000000000000000000000000000000000002A
:1006D000000000000000000000000000000000001A
:1006E000000000000000000000000000000000000A
:1006F0004298000000000000000000000000000020
:1007000000000000000000000000000000000000E9
:1007100000000000000000000000000000000000D9
:1007200000000000000000000000429A28B130E103
:10073000839FC00111242F70282B28B900000000CE
:1007400000000000000000000000000000000000A9
:100750000000000000000000000000000000000099
:100760000000000000000000000000000000000089
:1007700000000000429887B18F7087B988B1806F00
:1007800088B90F90DF91CF9108950E943A0288E2D4
:100790000E94C90281E00E94C9022FEF8DEE92E013
:1007A000215080409040E1F700C0000086E00E94A8
:1007B000C9028CE00E94C90282E00E94C90280E85E
:1007C0000C94C90281E00C94C902623031F06330AC
:1007D00031F0613029F4805C03C08C5E01C08C5A1A
:1007E00080680C94C902EF92FF921F93CF93DF931E
:1007F0001F92CDB7DEB7009771F0182F7C0107C0AC
:10080000F70181917F0169830E94470369818E2DE1
:10081000811B8617A8F30F90DF91CF911F91FF9056
:10082000EF90089594EA9093BC0094E6699FB0011C
:1008300011249B0140E054EA1DC09091BC0097FF39
:1008400013C09091B900987F903169F0983319F0F6
:10085000983021F408C05093BC000CC084E0809311
:10086000BC0081E0089541E095E39A95F1F700001E
:100870002150310921153105C9F04423F1F21BC083
:100880008091BC0087FD1DC085E38A95F1F70000CB
:10089000615071096115710599F783E0089584E944
:1008A0008093BC0084E0089580E0089584E0809304
:1008B000BC0082E008958093BB0084E88093BC0074
:1008C000E9CF8091B900887F883171F3803439F79E
:1008D000EBCF8093BB0084E88093BC008091BC0088
:1008E00087FFFCCF9091B900987F81E0983209F0A2
:1008F00080E00895662311F024E801C024EC2093E1
:10090000BC002091BC0027FFFCCF2091BB00FC0164
:1009100020839091B900987F81E0662319F0983583
:1009200021F002C0903509F080E00895AF92BF92A7
:10093000CF92DF92EF92FF920F931F93CF93DF93AB
:1009400000D01F92CDB7DEB7D82EC62E8E7F29835A
:100950004A835B830E941204F82E29814A815B81BD
:10096000882389F02FC0F50181915F010E946904FD
:1009700081110CC06C2D8D2D81600E941204F82E07
:10098000882339F01FC05A01F22EF40EFA10EBCF73
:10099000F1CFEA940EC06801FFEFCF1ADF0A61E0E1
:1009A000E11060E0C8010E947A04EA94882329F0EB
:1009B00086018FEFE812EFCF02C085E0F82E84E9C0
:1009C0008093BC008F2D0F900F900F90DF91CF91EF
:1009D0001F910F91FF90EF90DF90CF90BF90AF905D
:1009E00008958F929F92AF92BF92CF92DF92EF9233
:1009F000FF920F931F93CF93DF936091F71970913C
:100A0000F819882777FD8095982F0E949F3920E05C
:100A100030E040EA50E40E94D73A20E030E040E87D
:100A200059E30E94D73A8B01D82FC92F6091E91959
:100A30007091EA19882777FD8095982F0E949F3939
:100A400020E030E040EA50E40E94D73A20E030E075
:100A500040E859E30E94D73A4B015C01CE01202FB8
:100A6000312F492F582F682D792D8A2D9B2D0E94CB
:100A7000883A18160CF046C0C0901F01D090200193
:100A8000E0902101F0902201A7019601682D792DB7
:100A90008A2D9B2D0E94883A1816DCF4A701960136
:100AA000682D792D8A2D9B2D0E94983820ED3FE0EE
:100AB00049EC5FE30E94D73A4B015C01A701960124
:100AC00060911B0170911C0180911D0190911E018C
:100AD00063C0282D392D4A2D5B2DC701B6010E9418
:100AE000983820ED3FE049EC5FEB0E94D73A4B018C
:100AF0005C01209123013091240140912501509106
:100B0000260148C0C0901301D0901401E090150157
:100B1000F0901601A7019601FE01602F712F8F2F13
:100B20009E2F0E94883A1816E4F4A7019601FE0150
:100B3000602F712F8F2F9E2F0E94983820ED3FE05D
:100B400049EC5FEB0E94D73A4B015C01A70196018B
:100B500060911701709118018091190190911A010B
:100B60001BC0CE01202F312F492F582FC701B601AE
:100B70000E94983820ED3FE049EC5FE30E94D73AAD
:100B80004B015C0120910F01309110014091110146
:100B900050911201C701B6010E9498389B01AC0127
:100BA000C501B4010E9404396093F3197093F419DC
:100BB0008093F5199093F619DF91CF911F910F91C2
:100BC000FF90EF90DF90CF90BF90AF909F908F906D
:100BD00008952F923F924F925F926F927F928F92E1
:100BE0009F92AF92BF92CF92DF92EF92FF920F93BC
:100BF0001F93CF93DF9300D000D0CDB7DEB7E09046
:100C00002A01F0902B0160913001709131016E1931
:100C10007F09882777FD8095982F0E949F3920E0D3
:100C200030E040E251E40E9404393B014C018091E4
:100C30002C0190912D019C838B8300912E011091AA
:100C40002F016091340170913501601B710B882771
:100C500077FD8095982F0E949F399B01AC01662DEE
:100C6000772D882D992D0E9404392B0189839A8331
:100C7000B701882777FD8095982F0E949F3920E043
:100C800030E040E251E40E9404391B015C016091B4
:100C9000161A7091171AEB81FC816E1B7F0B882747
:100CA00077FD8095982F0E949F396B017C016091A0
:100CB0003201709133018B819C81681B790B8827ED
:100CC00077FD8095982F0E949F399B01AC01662D7E
:100CD000772D882D992D0E9404399B01AC01C70105
:100CE000B6010E94D73A222D332D4A2D5B2D0E944A
:100CF00099386093EF197093F0198093F1199093DC
:100D0000F2196091F9197091FA19601B710B88271B
:100D100077FD8095982F0E949F39E9811A81242DB3
:100D2000352D4E2F512F0E94D73A222D332D4A2D8B
:100D30005B2D0E94993860930E1A70930F1A80935E
:100D4000101A9093111A0F900F900F900F90DF913F
:100D5000CF911F910F91FF90EF90DF90CF90BF90B8
:100D6000AF909F908F907F906F905F904F903F904B
:100D70002F9008954F925F926F927F928F929F92E1
:100D8000AF92BF92CF92DF92EF92FF920F931F9399
:100D9000CF93DF93C090FC19D090FD19E090FE191D
:100DA000F090FF1920E030E048EC52E4C701B601B2
:100DB0000E94883A181654F020E030E048EC52ECDB
:100DC000C701B6010E94FD3887FF9BC08090121AB0
:100DD0009090131AA090141AB090151A20E030E0E9
:100DE00040E85FE3C501B4010E9499382B013C0142
:100DF000A501940160E070E080E89FE30E949838CC
:100E00009B01AC01C301B2010E9404398B01D82FB0
:100E1000C92F9E01862F912FA32FB22F80930B01F4
:100E200090930C01A0930D01B0930E0120E030E0EF
:100E300040E251E4FE01602F712F8F2F9E2F0E9400
:100E4000FD3887FF14C09E01602F712F832F922FD2
:100E50000E948C3A20E030E04AE754E40E94D73AFE
:100E60000E9471397093251A6093241A06C088EE87
:100E700093E09093251A8093241A7090370188E2AA
:100E8000781699F120E030E040E251E4FE01602F55
:100E9000712F8F2F9C2F0E94D73A4B015C01672D39
:100EA00070E080E090E00E949F399B01AC01C50199
:100EB000B4010E94883A87FD18C060913801709192
:100EC000390180E090E00E949D399B01AC01C7018F
:100ED000B6010E94883A181644F4809194179091B4
:100EE000951787FD709A806807C08091941790913C
:100EF000951787FF2AC08F77909395178093941743
:100F000024C02AE037ED43E25CE3C701B6010E944A
:100F1000883A1816D4F02AE037ED43E25CEBC701BB
:100F2000B6010E94FD3887FD10C080E090E0A0E887
:100F3000BFE380930B0190930C01A0930D01B0933C
:100F40000E011092251A1092241ADF91CF911F9151
:100F50000F91FF90EF90DF90CF90BF90AF909F9058
:100F60008F907F906F905F904F9008952F923F9257
:100F70004F925F926F927F928F929F92AF92BF92A9
:100F8000CF92DF92EF92FF920F931F93CF93DF9355
:100F900000D000D01F92CDB7DEB720E030E040EAAD
:100FA00051E46091EF197091F0198091F1199091CD
:100FB000F2190E9404399B01AC0160E070E080E20C
:100FC00091E40E943A3B7B016C0120E030E040EA72
:100FD00051E460910E1A70910F1A8091101A90913D
:100FE000111A0E9404399B01AC0160E070E080E2BC
:100FF00091E40E943A3B562E672E8C01762F272FC4
:10100000362D402F512F6E2D7F2D8C2D9D2D0E9422
:101010000439262E79838A83792E8090F319909053
:10102000F419A090F519B090F619C501B4010E9409
:1010300001399B01AC01A981FA80622D7A2F8F2D95
:10104000972D0E94D73A362E472E8C839B83C62E2F
:10105000D72E7C01862F942DAC81BB818093E11922
:101060009093E219A093E319B093E419C501B40178
:101070000E94863B9B01AC01A981BA80622D7A2F28
:101080008B2D972D0E94D73A762E872E982EA92E3B
:10109000862F982DA92DBA2D8093181A9093191A7E
:1010A000A0931A1AB0931B1A20E030E0A901632D17
:1010B000742D8C819B810E94FD3887FF08C0F7FA50
:1010C000F094F7F8F0948FEF8093FB1902C0109220
:1010D000FB19252D362D402F512F652D762D802F74
:1010E000912F0E94D73AA70196010E94D73A8B010F
:1010F0008D839C83382F292F862F912FA32FB22FDA
:101100008093FC199093FD19A093FE19B093FF19D9
:10111000602F712F832F922F0E948C3A20E030E0B5
:1011200040E251E40E94D73AB62E79838A839B83AA
:10113000472F382F292F862F942FA32FB22F80933C
:10114000001A9093011AA093021AB093031A20E098
:1011500030E040E85FE3C701B6010E949838362EC0
:10116000472E582E692E272D382D492D5A2D672DA3
:10117000782D892D9A2D0E94D73A762E872E982E7B
:10118000A92E20E030E040E85FE3C701B6010E94ED
:1011900099386B017C01232D342D452D562D632D5F
:1011A000742D852D962D0E94D73A272D382D492D47
:1011B0005A2D0E9499381B012C012C2D3D2D4E2DAE
:1011C0005F2D6C2D7D2D8E2D9F2D0E94D73A272DC2
:1011D000382D492D5A2D0E9499389B01AC01C2012E
:1011E000B1010E9404390E94903B6093121A7093DF
:1011F000131A8093141A9093151A9B01AC010E9444
:10120000D73AFD81EC81202F312F4F2F5E2F0E9486
:10121000D73A6B017C01862F9D2DAE2DBF2D80937B
:10122000E5199093E619A093E719B093E8196C2D8E
:101230007D2D8E2D9F2D0E948C3A20E030E040E2E3
:1012400051E40E94D73A6093041A7093051A809370
:10125000061A9093071A2C2D3D2D4E2D5F2DFD81E2
:10126000EC81602F712F8F2F9E2F0E9499389B0148
:10127000462F532F682F792F4093EB195093EC1979
:101280006093ED197093EE19622F732F0E948C3AC0
:1012900020E030E040E251E40E94D73A60931C1A0B
:1012A00070931D1A80931E1A90931F1AE0906E0C73
:1012B000F0906F0CD090700C20E030E048EC52E4DD
:1012C000A981CA80AB806B2D7A2F8C2D9A2D0E941C
:1012D000D73A0E946C39ED2DF0E0EE0FFF1FEF586A
:1012E000F34F71836083F701EE0FFF1FE756F34F53
:1012F000718360832FEFE21AF20AF0926F0CE09292
:101300006E0C8D2D8F5F8093700C20913B0130917E
:101310003C01E216F30620F010926F0C10926E0C56
:10132000843111F41092700CE9E9FCE080E090E067
:1013300061E070E807C041915191641775070CF4A2
:10134000BA01019682179307B1F7E1E7FCE0EE24BA
:10135000E39440E8F42E81919191E816F9060CF49B
:101360007C018CE0E939F807B1F7882777FD809593
:10137000982F0E949F3920E030E048EC52E40E9410
:101380000439FB01462F5F2F682F792F4093DD1919
:101390005093DE196093DF197093E01920E030E07C
:1013A00040E251E4BF010E9404399B01AC0160E0BE
:1013B00070E080E291E40E943A3B462F572F682F5D
:1013C000792F4093081A5093091A60930A1A709360
:1013D0000B1AB701882777FD8095982F0E949F39B7
:1013E00020E030E048EC52E40E940439FB01462F33
:1013F0005F2F682F792F4093D9195093DA19609392
:10140000DB197093DC1920E030E040E251E4BF01C9
:101410000E9404399B01AC0160E070E080E291E43D
:101420000E943A3B462F572F682F792F4093D519AA
:101430005093D6196093D7197093D819D090691426
:10144000ED2CF12CF701EE0FFF1FEE0FFF1FE659F9
:10145000FB4E3D812C81802F912FA32FB22F8083B3
:101460009183A283B38320918A1730918B17409187
:101470008C1750918D17FD81EC81602F712F8F2F6C
:101480009E2F0E949938E6ECED1560F0F701EE0F03
:10149000FF1FEE0FFF1FE259FB4E20813181428179
:1014A000538108C020916A1430916B1440916C14E0
:1014B00050916D140E94983860938A1770938B171F
:1014C00080938C1790938D178D2D8F5F883C19F02A
:1014D0008093691402C01092691420E030E048E45F
:1014E00053E460918A1770918B1780918C179091BB
:1014F0008D170E9404399B01462F532F682F792F97
:101500004093201A5093211A6093221A7093231A41
:10151000622F732F0E948C3A20E030E040E251E4C9
:101520000E94D73A6093D1197093D2198093D3193E
:101530009093D4190F900F900F900F900F90DF9110
:10154000CF911F910F91FF90EF90DF90CF90BF90C0
:10155000AF909F908F907F906F905F904F903F9053
:101560002F900C94BA0696E890937A00982F907278
:10157000906890937B008F71806480937C0086ECF0
:1015800080937A0080917A0086FDFCCF20917800CC
:101590004091790084E0289F90011124942F990FA5
:1015A000990F80E0282B392BC9010895CF938091A2
:1015B000BC0084608093BC001092B9008CE08093E2
:1015C000B80082E580934E196AE00E9412048823D5
:1015D00029F080E580934E19C1E001C0C2E084E9A2
:1015E0008093BC006AE080914E190E941204882307
:1015F00019F010924E19C0E084E98093BC008C2F42
:10160000CF910895CF92DF92EF920F931F93CF93D4
:10161000DF93CDB7DEB760970FB6F894DEBF0FBE8D
:10162000CDBF80914E198823E9F138E0E32E8E0179
:10163000075F1F4F20E0A8016AE00E949604FE01A8
:101640003A96CE014296DF0111973C91232F2295C5
:101650002370DE011196A20FB11DA20FB11D2FE064
:10166000D22ED322C12C2081A601420F511D4D93B1
:101670005C933296E817F90731F789819A81909344
:10168000171A8093161A8B819C819093FA19809374
:10169000F9198D819E819093F8198093F7198F81A4
:1016A000988518C080E00E94B30A9093171A80931F
:1016B000161A81E00E94B30A9093FA198093F919DF
:1016C00082E00E94B30A9093F8198093F71983E09F
:1016D0000E94B30A9093EA198093E91960960FB6B5
:1016E000F894DEBF0FBECDBFDF91CF911F910F9158
:1016F000EF90DF90CF9008950F931F93CF93DF93D8
:1017000000910B0110910C01D0910D01C0910E01BF
:1017100020E030E040E050E4FE01602F712F8F2F79
:101720009E2F0E94FD3887FF17C0CF93DF931F9332
:101730000F938EE991E09F938F9381E899E19F93B6
:101740008F930E943C458DB79EB708960FB6F894CC
:101750009EBF0FBE8DBF55C020E030E040E251E497
:10176000FE01602F712F8F2F9E2F0E94FD3887FF63
:1017700017C0CF93DF931F930F9386EA91E09F9357
:101780008F9381E899E19F938F930E943C458DB799
:101790009EB708960FB6F8949EBF0FBE8DBF31C09E
:1017A00020E030E44CE156E4FE01602F712F8F2FD2
:1017B0009E2F0E94FD3887FF1AC09E01602F712F57
:1017C000832F922F0E9471397F936F938FEA91E05C
:1017D0009F938F9381E899E19F938F930E943C455B
:1017E0000F900F900F900F900F900F900AC063EB27
:1017F00071E081E899E1DF91CF911F910F910C94F5
:10180000E144DF91CF911F910F9108959C0137FF23
:1018100004C088279927821B930B6AE070E00E941E
:1018200095402D394FEF3407BCF49F938F937F93EE
:101830006F9389EB91E09F938F9381E899E19F9358
:101840008F930E943C458DB79EB708960FB6F894CB
:101850009EBF0FBE8DBF089537FF17C09F938F9314
:101860007F936F9385EC91E09F938F9381E899E14B
:101870009F938F930E943C458DB79EB708960FB6F5
:10188000F8949EBF0FBE8DBF08959F938F937F9353
:101890006F9382ED91E09F938F9381E899E19F93FD
:1018A0008F930E943C458DB79EB708960FB6F8946B
:1018B0009EBF0FBE8DBF0895CF92DF92EF92FF9231
:1018C0006B017C0120E034E244E759E40E94883A4D
:1018D00087FD0FC0C701B6010E94713928EE33E0C1
:1018E00040E050E00E94A9403F932F938DED91E09E
:1018F0007DC220E030E543EC57E4C701B6010E9409
:10190000883A87FD0FC0C701B6010E94713928EEE1
:1019100033E040E050E00E94A9403F932F9383EED4
:1019200091E064C220E030E44CE156E4C701B60126
:101930000E94883A87FD29C0C701B6010E9471390B
:1019400028EE33E040E050E00E94A940F22EE32E62
:1019500024E630E040E050E00E94A9403F932F93FE
:10196000EF92FF928AEE91E09F938F9381E899E145
:101970009F938F930E943C458DB79EB708960FB6F4
:10198000F8949EBF0FBE8DBF7BC220E030E04AE7D7
:1019900054E4C701B6010E94883A87FD29C0C701F7
:1019A000B6010E94713928EE33E040E050E00E9419
:1019B000A940F22EE32E2AE030E040E050E00E9401
:1019C000A9403F932F93EF92FF9285EF91E09F9371
:1019D0008F9381E899E19F938F930E943C458DB747
:1019E0009EB708960FB6F8949EBF0FBE8DBF48C233
:1019F00020E030E048EC52E4C701B6010E94883A8A
:101A000087FD09C0C701B6010E9471397F936F93AA
:101A100080E092E0EBC120E030E040E251E4C70119
:101A2000B6010E94883A87FD27C020E030E040E2FE
:101A300051E4C701B6010E94D73A0E9471392AE0E9
:101A400030E040E050E00E94A9407F936F933F93C5
:101A50002F9387E092E09F938F9381E899E19F9382
:101A60008F930E943C458DB79EB708960FB6F894A9
:101A70009EBF0FBE8DBF04C220E030E040E85FE3B0
:101A8000C701B6010E94883A87FD27C020E030E0F8
:101A900048EC52E4C701B6010E94D73A0E9471395E
:101AA00024E630E040E050E00E94A9407F936F932D
:101AB0003F932F9382E192E09F938F9381E899E186
:101AC0009F938F930E943C458DB79EB708960FB6A3
:101AD000F8949EBF0FBE8DBFD3C12DEC3CEC4CECF7
:101AE0005DE3C701B6010E94883A87FD0FC020E080
:101AF00030E04AE754E4C701B6010E94D73A0E9499
:101B000071397F936F938DE192E070C12AE037EDD8
:101B100043E25CE3C701B6010E94883A87FD27C013
:101B200020E030E44CE156E4C701B6010E94D73A08
:101B30000E9471392AE030E040E050E00E94A94064
:101B40007F936F933F932F9384E292E09F938F93C1
:101B500081E899E19F938F930E943C458DB79EB792
:101B600008960FB6F8949EBF0FBE8DBF89C12FE6B1
:101B700032E143E85AE3C701B6010E94883A87FD83
:101B800027C020E030E543EC57E4C701B6010E94CE
:101B9000D73A0E94713924E630E040E050E00E94DC
:101BA000A9407F936F933F932F938FE292E09F938F
:101BB0008F9381E899E19F938F930E943C458DB765
:101BC0009EB708960FB6F8949EBF0FBE8DBF58C142
:101BD00027E137EB41ED58E3C701B6010E94883A8F
:101BE00087FD0FC020E034E244E759E4C701B601A5
:101BF0000E94D73A0E9471397F936F938AE392E0F3
:101C0000F5C02CEA35EC47E257E3C701B6010E9464
:101C1000883A87FD27C020E836E948E15BE4C70140
:101C2000B6010E94D73A0E9471392AE030E040E0C4
:101C300050E00E94A9407F936F933F932F9381E4DC
:101C400092E09F938F9381E899E19F938F930E94F5
:101C50003C458DB79EB708960FB6F8949EBF0FBE51
:101C60008DBF0EC12DEB37E346E855E3C701B60142
:101C70000E94883A87FD27C020E23CEB4EEB5CE4F3
:101C8000C701B6010E94D73A0E94713924E630E0BC
:101C900040E050E00E94A9407F936F933F932F93C1
:101CA0008CE492E09F938F9381E899E19F938F93C7
:101CB0000E943C458DB79EB708960FB6F8949EBF1C
:101CC0000FBE8DBFDDC025E93FEB46ED53E3C701F5
:101CD000B6010E94883A87FD0FC028E23BE64EE637
:101CE0005EE4C701B6010E94D73A0E9471397F9322
:101CF0006F9387E592E07AC027E73CEC4BE252E332
:101D0000C701B6010E94883A87FD27C029EF32E05B
:101D100045E150E5C701B6010E94D73A0E947139EA
:101D20002AE030E040E050E00E94A9407F936F93AA
:101D30003F932F938EE592E09F938F9381E899E1F3
:101D40009F938F930E943C458DB79EB708960FB620
:101D5000F8949EBF0FBE8DBF93C02FE530E749E8D2
:101D600050E3C701B6010E94883A87FD27C027EBE0
:101D700033E44AEB51E5C701B6010E94D73A0E940D
:101D8000713924E630E040E050E00E94A9407F93A2
:101D90006F933F932F9389E692E09F938F9381E80F
:101DA00099E19F938F930E943C458DB79EB708960B
:101DB0000FB6F8949EBF0FBE8DBF62C02FEF36EEF8
:101DC0004BED5EE2C701B6010E94883A87FD1DC057
:101DD00025EA34ED48E653E5C701B6010E94D73A3B
:101DE0000E9471397F936F9384E792E09F938F9362
:101DF00081E899E19F938F930E943C450F900F904B
:101E00000F900F900F900F903BC02FEF3BEE4FE2E3
:101E10005DE2C701B6010E94883A87FD27C027EE20
:101E200034E841E155E5C701B6010E94D73A0E9466
:101E300071392AE030E040E050E00E94A9407F93F1
:101E40006F933F932F938BE792E09F938F9381E85B
:101E500099E19F938F930E943C458DB79EB708965A
:101E60000FB6F8949EBF0FBE8DBF0AC066E872E041
:101E700081E899E1FF90EF90DF90CF900C94E144DE
:101E8000FF90EF90DF90CF900895CF92DF92EF9286
:101E9000FF926B017C0120E034E244E759E40E94A8
:101EA000883A87FD0FC0C701B6010E94713928EE3C
:101EB00033E040E050E00E94A9403F932F938EED25
:101EC00091E093C020E030E543EC57E4C701B60150
:101ED0000E94883A87FD0FC0C701B6010E94713980
:101EE00028EE33E040E050E00E94A9403F932F935A
:101EF00085EE91E07AC020E030E44CE156E4C70181
:101F0000B6010E94883A87FD0FC0C701B6010E9442
:101F1000713928EE33E040E050E00E94A9403F9341
:101F20002F938DE892E061C020E030E04AE754E46E
:101F3000C701B6010E94883A87FD29C0C701B601D2
:101F40000E94713928EE33E040E050E00E94A94041
:101F5000F22EE32E2AE030E040E050E00E94A9405B
:101F60003F932F93EF92FF9283E992E09F938F9399
:101F700081E899E19F938F930E943C458DB79EB76E
:101F800008960FB6F8949EBF0FBE8DBF3CC020E0F0
:101F900030E048EC52E4C701B6010E94883A87FD60
:101FA00009C0C701B6010E9471397F936F9381E028
:101FB00092E01BC020E030E040E251E4C701B601EE
:101FC0000E94883A87FD09C0C701B6010E94713995
:101FD0007F936F938DE992E008C0C701B6010E941C
:101FE00071397F936F9384EA92E09F938F9381E896
:101FF00099E19F938F930E943C450F900F900F9013
:102000000F900F900F90FF90EF90DF90CF9008957A
:10201000CF93DF938091FB19882331F061E070E06A
:1020200088E89AE00E946C1A20E030E04AE754E425
:102030006091FC197091FD198091FE199091FF1922
:102040000E9404399F938F937F936F938CEA92E061
:102050009F938F93C1E8D9E1DF93CF930E943C45D2
:10206000FE0101900020E9F7BF01615071096C1B6E
:102070007D0BCE010E946C1A80910E018F9380918E
:102080000D018F9380910C018F9380910B018F93A1
:102090008FE991E09F938F93DF93CF930E943C450C
:1020A000FE0101900020E9F7BF01615071096C1B2E
:1020B0007D0BCE010E946C1A62E070E081EB92E031
:1020C0000E946C1A20E030E048E452E46091181A53
:1020D0007091191A80911A1A90911B1A0E94D73A7E
:1020E0009F938F937F936F9320E030E048E452E416
:1020F0006091E1197091E2198091E3199091E419CE
:102100000E94D73A9F938F937F936F9384EB92E0D3
:102110009F938F93DF93CF930E943C45FE010190E4
:102120000020E9F7BF01615071096C1B7D0BCE01E6
:102130000E946C1A62E174E0CE010E94E144FE014B
:1021400001900020E9F7BF01615071096C1B7D0B04
:102150008DB79EB74C960FB6F8949EBF0FBE8DBF3D
:10216000CE01DF91CF910C946C1ACF93DF936091E5
:10217000FC197091FD198091FE199091FF190E9430
:102180005C0CC1E8D9E1FE0101900020E9F7BF0134
:10219000615071096C1B7D0BCE010E946C1A66E0C8
:1021A00070E081EC92E00E946C1A0E947C0BFE01B0
:1021B00001900020E9F7BF01615071096C1B7D0B94
:1021C000CE010E946C1A62E174E0CE010E94E144EB
:1021D000FE0101900020E9F7BF01615071096C1BFD
:1021E0007D0BCE01DF91CF910C946C1ACF93DF93CE
:1021F0006091D5197091D6198091D7199091D819FD
:102200000E945C0CC1E8D9E1FE0101900020E9F7D1
:10221000BF01615071096C1B7D0BCE010E946C1ACD
:1022200066E070E081EC92E00E946C1A0E947C0BE8
:10223000FE0101900020E9F7BF01615071096C1B9C
:102240007D0BCE010E946C1A62E174E0CE010E9407
:10225000E144FE0101900020E9F7BF0161507109DE
:102260006C1B7D0BCE01DF91CF910C946C1ACF9338
:10227000DF936091081A7091091A80910A1A90915F
:102280000B1A0E945C0CC1E8D9E1FE01019000200C
:10229000E9F7BF01615071096C1B7D0BCE010E94F3
:1022A0006C1A66E070E081EC92E00E946C1A0E9469
:1022B0007C0BFE0101900020E9F7BF01615071091C
:1022C0006C1B7D0BCE010E946C1A62E174E0CE01A2
:1022D0000E94E144FE0101900020E9F7BF01615036
:1022E00071096C1B7D0BCE01DF91CF910C946C1AA0
:1022F000CF93DF936091201A7091211A8091221A56
:102300009091231A0E945C0CC1E8D9E1FE01019072
:102310000020E9F7BF01615071096C1B7D0BCE01F4
:102320000E946C1A66E070E081EC92E00E946C1AE8
:102330000E947C0BFE0101900020E9F7BF01615073
:1023400071096C1B7D0BCE010E946C1A62E174E076
:10235000CE010E94E144FE0101900020E9F7BF0197
:10236000615071096C1B7D0BCE01DF91CF910C94F4
:102370006C1ACF93DF9320E030E040E251E46091AB
:10238000001A7091011A8091021A9091031A0E940A
:10239000D73A0E946C39CB010E94060CC1E8D9E102
:1023A000FE0101900020E9F7BF01615071096C1B2B
:1023B0007D0BCE010E946C1A66E070E081EC92E029
:1023C0000E946C1A0E947C0BFE0101900020E9F72C
:1023D000BF01615071096C1B7D0BCE010E946C1A0C
:1023E00062E174E0CE010E94E144FE010190002010
:1023F000E9F7BF01615071096C1B7D0BCE01DF91C4
:10240000CF910C946C1ACF93DF9320E030E040E240
:1024100051E46091D9197091DA198091DB1990918A
:10242000DC190E94D73A0E946C39CB010E94060C3D
:10243000C1E8D9E1FE0101900020E9F7BF01615038
:1024400071096C1B7D0BCE010E946C1A66E070E076
:1024500081EC92E00E946C1A0E947C0BFE010190BC
:102460000020E9F7BF01615071096C1B7D0BCE01A3
:102470000E946C1A62E174E0CE010E94E144FE0108
:1024800001900020E9F7BF01615071096C1B7D0BC1
:10249000CE01DF91CF910C946C1ACF93DF9320E0A3
:1024A00030E040E251E46091DD197091DE198091D5
:1024B000DF199091E0190E94D73A0E946C39CB0144
:1024C0000E94060CC1E8D9E1FE0101900020E9F765
:1024D000BF01615071096C1B7D0BCE010E946C1A0B
:1024E00066E070E081EC92E00E946C1A0E947C0B26
:1024F000FE0101900020E9F7BF01615071096C1BDA
:102500007D0BCE010E946C1A62E174E0CE010E9444
:10251000E144FE0101900020E9F7BF01615071091B
:102520006C1B7D0BCE01DF91CF910C946C1ACF9375
:10253000DF9320E030E040E251E46091D1197091E6
:10254000D2198091D3199091D4190E94D73A0E9440
:102550006C39CB010E94060CC1E8D9E1FE01019063
:102560000020E9F7BF01615071096C1B7D0BCE01A2
:102570000E946C1A66E070E081EC92E00E946C1A96
:102580000E947C0BFE0101900020E9F7BF01615021
:1025900071096C1B7D0BCE010E946C1A62E174E024
:1025A000CE010E94E144FE0101900020E9F7BF0145
:1025B000615071096C1B7D0BCE01DF91CF910C94A2
:1025C0006C1ACF93DF9368EC72E081E899E10E9486
:1025D000E144E1E8F9E1DF010D900020E9F7BD01F8
:1025E000615071096E1B7F0BCF010E946C1A8091A4
:1025F000FB19882331F061E070E088E89AE00E94DE
:102600006C1A6091FC197091FD198091FE199091DE
:10261000FF190E945C0CE1E8F9E1DF010D90002058
:10262000E9F7BD01615071096E1B7F0BCF010E945C
:102630006C1A62E070E081EB92E00E946C1A80916B
:10264000FB19882331F061E070E088E89AE00E948D
:102650006C1A6091D5197091D6198091D719909103
:10266000D8190E945C0CE1E8F9E1DF010D9000202F
:10267000E9F7BD01615071096E1B7F0BCF010E940C
:102680006C1A62E070E081EB92E00E946C1A80911B
:10269000FB19882331F061E070E088E89AE00E943D
:1026A0006C1A6091081A7091091A80910A1A909117
:1026B0000B1A0E945C0CE1E8F9E1DF010D900020AB
:1026C000E9F7BD01615071096E1B7F0BCF010E94BC
:1026D0006C1A62E070E081EB92E00E946C1A8091CB
:1026E000FB19882331F061E070E088E89AE00E94ED
:1026F0006C1A6091201A7091211A8091221A90917F
:10270000231A0E945C0CC1E8D9E1FE01019000206F
:10271000E9F7BF01615071096C1B7D0BCE010E946E
:102720006C1A62E174E0CE010E94E144DE010D907A
:102730000020E9F7BD01615071096C1B7D0BCE01D2
:102740000E946C1A64EF72E0CE010E94E144FE0127
:1027500001900020E9F7BF01615071096C1B7D0BEE
:10276000CE010E946C1A8091FB19882331F061E040
:1027700070E088E89AE00E946C1A6091EB19709101
:10278000EC198091ED199091EE190E945C0CE1E832
:10279000F9E1DF010D900020E9F7BD0161507109F9
:1027A0006E1B7F0BCF010E946C1A62E070E081EB20
:1027B00092E00E946C1A8091FB19882331F061E04D
:1027C00070E088E89AE00E946C1A6091E5197091B7
:1027D000E6198091E7199091E8190E945C0CC1E814
:1027E000D9E1FE0101900020E9F7BF0161507109B4
:1027F0006C1B7D0BCE010E946C1A62E174E0CE016D
:102800000E94E144DE010D900020E9F7BD01615016
:1028100071096C1B7D0BCE010E946C1A64E070E0A4
:1028200083EC92E00E946C1A0E947C0BFE010190E6
:102830000020E9F7BF01615071096C1B7D0BCE01CF
:102840000E946C1A62E174E0CE010E94E144DE0154
:102850000D900020E9F7BD01615071096C1B7D0BE3
:10286000CE010E946C1A6AE173E0CE010E94E1443D
:10287000FE0101900020E9F7BF01615071096C1B56
:102880007D0BCE010E946C1A20E030E048E452E457
:102890006091181A7091191A80911A1A90911B1A46
:1028A0000E94D73A9F938F937F936F9320E030E0FD
:1028B00048E452E46091E1197091E2198091E319C2
:1028C0009091E4190E94D73A9F938F937F936F93CF
:1028D00084EB92E09F938F93DF93CF930E943C45CC
:1028E000DE010D900020E9F7BD01615071096C1BFC
:1028F0007D0BCE010E946C1A62E174E0CE010E9451
:10290000E144FE0101900020E9F7BF016150710927
:102910006C1B7D0BCE010E946C1A62E174E0CE014B
:102920000E94E144DE010D900020E9F7BD016150F5
:1029300071096C1B7D0BEDB7FEB73C960FB6F89492
:10294000FEBF0FBEEDBFCE01DF91CF910C946C1A8C
:10295000CF92DF92EF92FF920F931F93CF93DF936B
:1029600000D0CDB7DEB76FE479E184E293E00E9456
:10297000D8440097A1F480913A0180FF02C087FFFC
:102980000BC081E080933A0141E050E06BE270E0DF
:102990008AE391E00E94ED450E940810F7C46FE4BD
:1029A00079E18AE293E00E94D8440097A1F48091F3
:1029B0003A0181FF02C087FF0BC082E080933A0199
:1029C00041E050E06BE270E08AE391E00E94ED4567
:1029D0000E94B510DBC46FE479E180E393E00E94CC
:1029E000D8440097A1F480913A0182FF02C087FF8A
:1029F0000BC084E080933A0141E050E06BE270E06C
:102A00008AE391E00E94ED450E943711BFC46FE454
:102A100079E184E393E00E94D844009741F48091E7
:102A20003A0183FF02C087FFEFCF88E0E3CF6FE476
:102A300079E189E393E00E94D8440097A1F4809162
:102A40003A0184FF02C087FF0BC080E180933A0106
:102A500041E050E06BE270E08AE391E00E94ED45D6
:102A60000E94781193C46FE479E18EE393E00E94B1
:102A7000D8440097B1F480913A01982F9272923223
:102A800011F487FF0BC082E280933A0141E050E0ED
:102A90006BE270E08AE391E00E94ED450E94B9117B
:102AA00075C46FE479E186E493E00E94D84400970E
:102AB000B1F480913A01982F9472943211F487FF07
:102AC0000BC084E280933A0141E050E06BE270E099
:102AD0008AE391E00E94ED450E94031257C46FE41F
:102AE00079E18CE493E00E94D8440097B1F480919E
:102AF0003A01982F9872983211F487FF0BC088E240
:102B000080933A0141E050E06BE270E08AE391E0AB
:102B10000E94ED450E944D1239C46FE479E183E5CE
:102B200093E00E94D8440097B1F480913A01982F25
:102B30009073903311F487FF0BC080E380933A01C8
:102B400041E050E06BE270E08AE391E00E94ED45E5
:102B50000E9497121BC46FE479E18AE593E00E941A
:102B6000D8440097A1F480913A0186FF02C087FF04
:102B70000BC080E480933A0141E050E06BE270E0EA
:102B80008AE391E00E94ED450E94E112FFC36FE4E9
:102B900079E180E693E00E94D844009771F4809137
:102BA0003A0187FDF3C3806880933A0141E050E029
:102BB0006BE270E08AE391E0E7C36FE479E186E6D7
:102BC00093E00E94D844009739F5809135018F93A6
:102BD000809134018F93809133018F9380913201E2
:102BE0008F93809131018F93809130018F938091E9
:102BF0002F018F9380912E018F9380912D018F93C0
:102C000080912C018F9380912B018F9380912A01C9
:102C10008F938DE693E023C346E050E06FE479E1C3
:102C20008CE893E00E94E844009709F05DC04AE018
:102C300050E0BE016F5F7F4F85E599E10E94A94298
:102C400070932B0160932A014AE050E0BE016F5F50
:102C50007F4F89819A810E94A94270932D016093D0
:102C60002C014AE050E0BE016F5F7F4F89819A815D
:102C70000E94A94270932F0160932E014AE050E018
:102C8000BE016F5F7F4F89819A810E94A942709334
:102C90003101609330014AE050E0BE016F5F7F4F29
:102CA00089819A810E94A942709333016093320115
:102CB0004AE050E0BE016F5F7F4F89819A810E9498
:102CC000A942709335016093340146E050E06BE116
:102CD00070E08AE291E00E94ED4546E050E061E25A
:102CE00070E080E391E050C36FE479E183E993E021
:102CF0000E94D8440097B9F480913F011F928F93AE
:102D000080913E011F928F9380913D011F928F937E
:102D10008CE993E09F938F9301E819E11F930F9340
:102D20000E943C45A4C248E050E06FE479E181EBA9
:102D300093E00E94E844009709F050C04AE050E058
:102D4000BE016F5F7F4F87E599E10E94A942162F70
:102D50004AE050E0BE016F5F7F4F89819A810E94F7
:102D6000A942062F4AE050E0BE016F5F7F4F898184
:102D70009A810E94A942EAE01E9FC0011124202FDF
:102D800030E0281739073CF0212F220F022F000FC7
:102D9000000F020F0150262F30E0281739073CF0B2
:102DA000812F880F682F660F660F680F615001171B
:102DB00008F4012F802F011708F4812F10933D0193
:102DC00000933E01861708F4862F80933F0143E06D
:102DD00050E06EE270E08DE391E0D6C26FE479E1FD
:102DE0008AEB93E00E94D844009731F562EC73E0DF
:102DF00081E899E10E94E14401E819E1F8010190BC
:102E00000020E9F7BF0161507109601B710BC80117
:102E10000E946C1A6BEF73E0C8010E94E144F80154
:102E200001900020E9F7BF0161507109601B710B2F
:102E3000C8010E946C1AAAC249E050E06FE479E12F
:102E400085E194E00E94E844009779F444E150E081
:102E500068E579E180E491E00E94F64445E150E0C4
:102E600061E370E080E491E08FC24BE050E06FE4FA
:102E700079E18FE194E00E94E844009709F051C0A5
:102E8000BE016F5F7F4F8AE599E10E944E416B0161
:102E90007C0120E030E0A9010E94FD38882391F1F7
:102EA0002FE632E143E85AE3C701B6010E94FD383C
:102EB000882341F12AE037ED43E25CE3C701B60124
:102EC0000E94FD388823F1F02DEC3CEC4CEC5DE3E6
:102ED000C701B6010E94FD388823A1F020E030E050
:102EE00040E85FE3C701B6010E94FD38882351F036
:102EF00020E030E040E251E4C701B6010E94FD3815
:102F0000811144C2C0925501D0925601E0925701FE
:102F1000F092580144E050E066E470E085E591E00D
:102F200033C26FE479E18BE294E00E94D8440097C9
:102F300079F4809158018F93809157018F938091FC
:102F400056018F93809155018F9387E394E0D0C011
:102F500048E050E06FE479E18BE594E00E94E844BA
:102F60000097E9F4BE016F5F7F4F87E599E10E940A
:102F70004E4120E030E040E251E40E94D73A0E9406
:102F80007139CB010F974A9708F000C2609337015F
:102F900041E050E068E270E087E391E0F5C16FE462
:102FA00079E184E694E00E94D8440097A1F460910E
:102FB000370170E080E090E00E949F3920E030E02F
:102FC00040E251E40E9404399F938F937F936F9363
:102FD0008DE694E08DC04DE050E06FE479E189E842
:102FE00094E00E94E844009731F54AE050E0BE01C9
:102FF0006F5F7F4F8CE599E10E94A94261307105B6
:1030000079F06A30710561F06436710549F0683E07
:1030100093E0790729F06031E7E27E0709F0B6C155
:10302000709339016093380142E050E069E270E04A
:1030300088E391E0A9C16FE479E187E994E00E9417
:10304000D844009749F4809139018F9380913801D9
:103050008F9385EA94E08AC04CE050E06FE479E118
:1030600085EC94E00E94E844009731F5BE016F5F63
:103070007F4F8BE599E10E944E4120E030E048E42B
:1030800053E40E94D73A0E947139683C710549F0B7
:10309000643FF1E07F0729F0683E23E0720709F002
:1030A00075C170933C0160933B0142E050E06CE2DB
:1030B00070E08BE391E068C16FE479E182ED94E028
:1030C0000E94D8440097E9F460913B0170913C0163
:1030D00080E090E00E949D3920E030E048E453E435
:1030E0000E9404399F938F937F936F938FED94E0A9
:1030F0009F938F9301E819E11F930F930E943C4522
:10310000B6C046E050E06FE479E184EF94E00E94BD
:10311000E8440097D9F44AE050E0BE016F5F7F4F6A
:1031200085E599E10E94A9429B012150310928308F
:10313000310508F02BC1709329016093280142E00A
:1031400050E069E170E088E291E01EC16FE479E14E
:103150008BEF94E00E94D844009719F580912901E3
:103160008F93809128018F9382E095E09F938F93B6
:1031700001E819E11F930F930E943C45F80101906B
:103180000020E9F7BF0161507109601B710BC80194
:103190000E946C1A0F900F900F900F900F900F904D
:1031A000F5C06FE479E182E295E00E94D84400978F
:1031B00039F580911A018F93809119018F93809135
:1031C00018018F93809117018F93809116018F932F
:1031D000809115018F93809114018F938091130139
:1031E0008F93809112018F93809111018F93809121
:1031F00010018F9380910F018F938CE295E02FC087
:103200006FE479E18BE495E00E94D844009709F0DF
:1032100040C0809126018F93809125018F938091EA
:1032200024018F93809123018F93809122018F93AA
:10323000809121018F93809120018F9380911F01B4
:103240008F9380911E018F9380911D018F938091A8
:103250001C018F9380911B018F9385E595E09F93CF
:103260008F9301E819E11F930F930E943C45F801E9
:1032700001900020E9F7BF0161507109601B710BDB
:10328000C8010E946C1A0FB6F894DEBF0FBECDBF06
:103290007DC049E050E06FE479E184E795E00E9469
:1032A000E8440097A1F5BE016F5F7F4F88E599E183
:1032B0000E944E4160930F017093100180931101A1
:1032C00090931201BE016F5F7F4F89819A810E94A6
:1032D0004E416093130170931401809315019093F4
:1032E0001601BE016F5F7F4F89819A810E944E4116
:1032F00060931701709318018093190190931A013C
:103300004CE050E060E070E08FE091E03DC049E0CB
:1033100050E06FE479E18EE795E00E94E844009781
:10332000A9F5BE016F5F7F4F88E599E10E944E418C
:1033300060931B0170931C0180931D0190931E01EB
:10334000BE016F5F7F4F89819A810E944E416093D9
:103350001F01709320018093210190932201BE01EF
:103360006F5F7F4F89819A810E944E416093230154
:103370007093240180932501909326014CE050E046
:103380006CE070E08BE191E00E94ED450F900F90B2
:10339000DF91CF911F910F91FF90EF90DF90CF9031
:1033A0000895CF930E94521AC82F882369F1809103
:1033B0008E17811129C00E942D1A843229F58FEFB2
:1033C00080938E1710928F17C1501EC00E942D1A25
:1033D000C15020918F17213309F40BC030E0F9015F
:1033E000E15BF64E8D3011F08A3041F410820E947C
:1033F000A81410928E1710928F1701C080838091AD
:103400008F178F5F80938F17CC2321F080918E17B9
:103410008111DCCFCF9108958091E80080FFFCCF2F
:10342000089581E88093D70080EA8093D80086E1F0
:1034300089BD09B400FEFDCF80E98093D8001092C9
:10344000E00010929117109292178CE08093E200A6
:10345000789408958091911708958FB7F89490917A
:103460009117911101C00DC093E09093E9002BE6F4
:103470009091E80095FD09C092FF03C02093E800F9
:10348000F7CF8FBF2FEF3FEF0BC02091F10090914E
:10349000E80095FD03C09BE69093E8008FBF30E005
:1034A000C90108952FB7F89480919117811102C036
:1034B00080E010C083E08093E9008091F2008111E8
:1034C00009C09091E80092FFF3CF95FDF1CF9BE604
:1034D0009093E8002FBF08950F931F93CF938C0113
:1034E00080919117811101C00FC04FB7F89484E00B
:1034F0008093E90080919317882309F483C1809118
:10350000E80085FD03C04FBF8FEF85C11092931770
:1035100079C18091E400875E9091E80095FD12C02A
:103520004FBF9091E400981304C081E080939317FB
:10353000EBCF90919117992339F34FB7F8945093AB
:10354000E900EACF8091F2009A2F981B892F292F4A
:1035500030E06217730708F4862F681B710990E04A
:103560008134910508F040C1845B9F4FFC010C94AD
:10357000CB40F80181918F018093F100F801819196
:103580008F018093F100F80181918F018093F10008
:10359000F80181918F018093F100F80181918F01F1
:1035A0008093F100F80181918F018093F100F8017F
:1035B00081918F018093F100F80181918F018093B7
:1035C000F100F80181918F018093F100F801819160
:1035D0008F018093F100F80181918F018093F100B8
:1035E000F80181918F018093F100F80181918F01A1
:1035F0008093F100F80181918F018093F100F8012F
:1036000081918F018093F100F80181918F01809366
:10361000F100F80181918F018093F100F80181910F
:103620008F018093F100F80181918F018093F10067
:10363000F80181918F018093F100F80181918F0150
:103640008093F100F80181918F018093F100F801DE
:1036500081918F018093F100F80181918F01809316
:10366000F100F80181918F018093F100F8018191BF
:103670008F018093F100F80181918F018093F10017
:10368000F80181918F018093F100F80181918F0100
:103690008093F100F80181918F018093F100F8018E
:1036A00081918F018093F100F80181918F018093C6
:1036B000F100F80181918F018093F100F80181916F
:1036C0008F018093F100F80181918F018093F100C7
:1036D000F80181918F018093F100F80181918F01B0
:1036E0008093F100F80181918F018093F100F8013E
:1036F00081918F018093F100F80181918F01809376
:10370000F100F80181918F018093F100F80181911E
:103710008F018093F100F80181918F018093F10076
:10372000F80181918F018093F100F80181918F015F
:103730008093F100F80181918F018093F100F801ED
:1037400081918F018093F100F80181918F01809325
:10375000F100F80181918F018093F100F8018191CE
:103760008F018093F100F80181918F018093F10026
:10377000F80181918F018093F100F80181918F010F
:103780008093F100F80181918F018093F100F8019D
:1037900081918F018093F100F80181918F018093D5
:1037A000F100F80181918F018093F100F80181917E
:1037B0008F018093F100F80181918F018093F100D6
:1037C000F80181918F018093F100F80181918F01BF
:1037D0008093F100F80181918F018093F100F8014D
:1037E00081918F018093F100F80181918F01809385
:1037F000F1008091E80085FFB093E800C093901736
:103800004FBF04C054E0A0E4BAE3C5E06115710500
:1038100009F07FCE80E0CF911F910F9108958091A4
:10382000921708951F920F920FB60F9211248F9343
:103830009F938091E1001092E10083FF11C01092EC
:10384000E90091E09093EB001092EC0092E19093EC
:10385000ED0098E09093F00010929117109292175B
:1038600082FF13C080919117882379F0809190177F
:10387000882359F0815080939017811106C084E00D
:103880008093E9008AE38093E8009F918F910F90E5
:103890000FBE0F901F9018951F920F920FB60F92A8
:1038A00011240BB60F92EF92FF920F931F932F9359
:1038B0003F934F935F936F937F938F939F93AF93B8
:1038C000BF93EF93FF93CF93DF931F92CDB7DEB7F4
:1038D0001092E9008091E80083FF20C19091F100EF
:1038E0008091F1002091F1003091F100F32EE12C54
:1038F000E22A2091F1003091F100132F00E0022B19
:103900006091F1007091F10022EF2093E800863081
:1039100009F04DC046E08AEB91E0FC01259134911D
:103920002E153F0509F007C0FC0132962591349110
:103930002017310711F0079615C0FC013496459108
:1039400054919A01FC0136968491572F40E0462B02
:103950004F3F510519F010F04FEF50E0481728F491
:10396000842F03C04150C9F6D9C07EEF9091E80082
:10397000492F4570D9F392FDD4C0982F813108F0BA
:1039800090E1A901692F07C0FA014F5F5F4FE491F1
:10399000E093F10061506111F7CF290F311D891BB0
:1039A0007093E8008111E2CF903101F3BAC0853005
:1039B00051F48EEF8093E8000E940C1A6894E7F8A7
:1039C000E092E300AEC0893061F59111A7C0E092AA
:1039D000911710929217109290178EEF8093E80033
:1039E00041E083EB92E001C0C9014093E9009C01F2
:1039F0002F5F3F4FFC0154915093EB00552361F032
:103A0000F90124912093EC009C012D5F3F4FFC01B4
:103A1000329684918093ED004F5F453029F78EE117
:103A200078C0883051F4903809F078C00E940C1AA0
:103A3000809191178093F10048C0813279F4913AD6
:103A400009F06CC00E940C1AE4E0F1E081918093CF
:103A5000F10031E0EB30F307C9F737C08032A1F451
:103A6000913209F05BC08091E80082FFFCCFE4E076
:103A7000F1E08091F100819381E0EB30F807C9F724
:103A80008BEF8093E80021C0823241F4913209F03B
:103A900045C0E09292170E940C1A17C0811119C0FC
:103AA00099830E940C1A9981923851F40093E9008D
:103AB0008091EB0085FB882780F91092E90001C016
:103AC00080E08093F1001092F1008EEF8093E80087
:103AD00028C0813011F0833009F59230F9F4EF28D5
:103AE000E9F40F771127902F91509430B8F49EEF9E
:103AF0009093E8000093E900833009F40FC089E156
:103B00008093EB0081E090E0002E01C0880F0A94C2
:103B1000EAF78093EA001092EA0003C081E2809302
:103B2000EB000F90DF91CF91FF91EF91BF91AF919B
:103B30009F918F917F916F915F914F913F912F91C5
:103B40001F910F91FF90EF900F900BBE0F900FBE43
:103B50000F901F901895809184009091850069E3E3
:103B600071E00E9481408091961790919717681795
:103B7000790781F070939717609396178BB190E453
:103B800089278BB90E94020B0E94E9050E94F1046B
:103B90000E94B607809184009091850062E772E0F0
:103BA0000E94814080919817909199176817790722
:103BB00021F07093991760939817809184009091E9
:103BC00085006DE678E10E94814080919A1790917E
:103BD0009B176817790709F43DC170939B17609391
:103BE0009A1780910C1A90910D1A91FD61C08091E5
:103BF00094179091951780FF5BC02091261A309101
:103C0000271A40919C17121613064CF44F5F483048
:103C10001CF440939C170CC010929C1709C0232BD6
:103C200081F0242F215027FF01C027E020939C170B
:103C30008E7F90939517809394171092271A109265
:103C4000261A80919C178330C1F034F4813079F0CA
:103C50008CF4882349F023C08530A9F08CF086309D
:103C6000A9F08730E1F415C081E090E014C082E053
:103C700090E011C084E090E00EC088E090E00BC0BE
:103C800080E190E008C080E290E005C080E490E030
:103C900002C080E890E090930D1A80930C1A8091F6
:103CA000941790919517806390939517809394172C
:103CB00020919D1780919417909195172A3058F074
:103CC00020910C1A30910D1A326030930D1A209306
:103CD0000C1A846012C0189B17C082FF02C08B7F31
:103CE0000CC0222371F020910C1A30910D1A31FF73
:103CF00002C0826002C070988F779093951780936E
:103D0000941710929D1705C082FD03C02F5F20936A
:103D10009D1780910C1A90910D1A91FF03C00E947B
:103D2000993769C08130910559F44091D519509166
:103D3000D6196091D7197091D81988E895E00DC00F
:103D40008230910569F44091201A5091211A6091B6
:103D5000221A7091231A89E995E00E9424224BC00F
:103D60008430910559F44091FC195091FD196091EE
:103D7000FE197091FF198DEA95E0EFCF883091051B
:103D800069F42091D5193091D6194091D7195091E5
:103D9000D81961EC75E088E895E00FC08031910595
:103DA00079F42091201A3091211A4091221A5091D1
:103DB000231A6AE373E085EC95E00E94E4231BC0BC
:103DC0008032910569F42091FC193091FD194091E0
:103DD000FE195091FF196EE876E08DEA95E0EDCF7F
:103DE0008034910519F40E94632505C0803891053F
:103DF00011F40E94ED2680913601882359F18091BB
:103E0000941786FF27C080913A0187FF23C080FD69
:103E10000C940810982F927085FF0DC091110C948E
:103E2000B91182FD0C94031283FD0C944D1284FF92
:103E300011C00C94971291110C94B51082FD0C9442
:103E4000F61083FD0C94371184FD0C94781186FDD7
:103E50000C94E112089584B7877F84BF88E10FB680
:103E6000F89480936000109260000FBE90E080E8AC
:103E70000FB6F89480936100909361000FBE10928A
:103E8000800084E08093810080E48AB91BB883E0DD
:103E90008DB91EB82098289A88E190E00E94D945F3
:103EA000909127014AE450E060E070E0891729F022
:103EB0008FE091E00E94ED4504C08FE091E00E9408
:103EC000C9450E94D60A182F0E94C5030E948B384C
:103ED0000E94E20360E080E00E94E50363E189ED77
:103EE00095E00E94F30361E080E00E94E50365E055
:103EF0008DEE95E00E94F3032FEF85EA9EE02150BE
:103F000080409040E1F700C0000061E08AE00E943C
:103F1000E5036AE083EF95E00E94F303EFEFF3EC33
:103F200029E0E150F0402040E1F700C0000062E0ED
:103F300088E00E94E5036CE08EEF95E00E94F303B9
:103F40008FEF91E1EAE781509040E040E1F700C057
:103F5000000063E080E00E94E5036EE08BE096E005
:103F60000E94F3032AE136E03F932F932FE136E0DE
:103F70003F932F93C1E8D9E1DF93CF930E943C4553
:103F8000FE0101900020E9F73197EC1BFD0B63E087
:103F900084E18E1B0E94E503FE0101900020E9F7F9
:103FA000BF01615071096C1B7D0BCE010E94F303B0
:103FB000FFEF27EA81E6F15020408040E1F700C0A2
:103FC000000063E080E00E94E5030F900F900F90E7
:103FD0000F900F900F9064E1113019F483E296E096
:103FE00007C0123019F488E396E002C08DE496E031
:103FF0000E94F30380913601882359F00E94111A20
:1040000080919417909195178F7B9093951780933B
:1040100094179FEFE3EDF0E39150E040F040E1F7BB
:1040200000C000000E94472A81E090E090930D1AA2
:1040300080930C1A809194179091951780639093B8
:104040009517809394170E94AB1D809136018823A9
:10405000D1F30E942A1A882389F00E940F1C80FF46
:104060000DC0809194179091951780649093951747
:1040700080939417719A0E94D119E5CF809194177B
:10408000909195178F7B90939517809394177198C3
:10409000DACFEF92FF920F931F93CF93DF9380912C
:1040A00059018F5F809359018091941790919517D2
:1040B00090FF08C09E7F909395178093941782E39A
:1040C0008093590180915901823389F510925901E9
:1040D0000E94E2030E943F418C010E943F41FC018B
:1040E000C0E4D1E0DE010D900020E9F77D01C801B8
:1040F00064E070E00E949540482F66E571E06E191B
:104100007F09CF010E948140642F0E94E503FE01D8
:1041100001900020E9F7BF0161547140CE01DF91A9
:10412000CF911F910F91FF90EF900C94F303DF91CB
:10413000CF911F910F91FF90EF9008950F931F93D0
:10414000CF93DF9300D000D000D0CDB7DEB7082FDB
:10415000162F2D833E834B835C837A8399830E9441
:10416000E20360E080E00E94E503A02F9981B92F6F
:10417000FD0101900020E9F73197EA1BFB0B6E2F40
:10418000802F0E94F30361E080E00E94E503A12FED
:104190007A81B72FFD0101900020E9F73197EA1BE2
:1041A000FB0B6E2F812F972F0E94F30362E080E0BC
:1041B0000E94E5034B81E42F5C81F52FDF010D9018
:1041C0000020E9F7BD01615071096E1B7F0BCA0128
:1041D0000E94F30363E080E00E94E5032D81E22F5B
:1041E0003E81F32FDF010D900020E9F7BD01615002
:1041F00071096E1B7F0BC90126960FB6F894DEBFBE
:104200000FBECDBFDF91CF911F910F910C94F3039F
:104210004F925F926F927F928F929F92AF92BF92D6
:10422000CF92DF92EF92FF92CF93DF9300D000D036
:10423000CDB7DEB720919E1734E0239FF001112403
:10424000E156F84E6083718382839383822F8F5F60
:10425000843619F080939E1702C010929E17EFE9E2
:10426000F7E1812C912C540181919191A191B1910F
:1042700088169906AA06BB0610F44C015D0149E1B7
:10428000EF32F40789F780913F01282F30E040E0BA
:1042900050E029833A834B835C83412C512C3201BB
:1042A000439408C0AAE0B0E0A30192010E94E44058
:1042B0002B013C01A301920169817A818B819C8150
:1042C0000E9465406B017C01681579058A059B0594
:1042D00048F3A0913E01B0E00E94E44069837A83F4
:1042E0008B839C8386169706A806B90680F4A09156
:1042F0003D01B0E00E94E4406B017C018616970608
:10430000A806B90620F0C980DA80EB80FC80B601EF
:10431000C7010F900F900F900F90DF91CF91FF90FA
:10432000EF90DF90CF90BF90AF909F908F907F9055
:104330006F905F904F9008954F925F926F927F922F
:104340008F929F92AF92BF92CF92DF92EF92FF92A5
:104350000F931F93CF93DF9300D000D0CDB7DEB77C
:104360002B013C01CA01B901E982FA820B831C834B
:10437000850174012AE0421651046104710448F178
:104380000E9471394B015C0169817A818B819C812A
:104390000E947139AB01BC0115C034E0769467947A
:1043A000579447943A95D1F7E4E0B694A79497943C
:1043B0008794EA95D1F7F4E07695679557954795F8
:1043C000FA95D1F74114510481E06806710428F789
:1043D0001DC024E0440C551C661C771C2A95D1F79F
:1043E00020E030E040E851E40E94D73A0E94713961
:1043F0004B0120E030E040E851E469817A818B8113
:104400009C810E94D73A0E947139AB01F60151821A
:104410004082F80191828082F701518340830F909E
:104420000F900F900F90DF91CF911F910F91FF9000
:10443000EF90DF90CF90BF90AF909F908F907F9044
:104440006F905F904F9008954F925F926F927F921E
:104450008F929F92AF92BF92CF92DF92EF92FF9294
:104460000F931F93CF93DF93CDB7DEB72A970FB685
:10447000F894DEBF0FBECDBF8C012A013B011E8226
:104480001D821C821B821A8219826091FC19709114
:10449000FD198091FE199091FF190E9471390E94B7
:1044A00008216F83788789879A87809194179091E4
:1044B000951785FF30C084FF10C08F7E90939517AD
:1044C0008093941710922F1922E636E0A80160E934
:1044D00076E087E796E00E949E2080912F198F5FFB
:1044E00080932F198A3008F458C110922F198091A7
:1044F0009417909195178F7D916090939517809365
:10450000941763E080E00E94E50364E18DE796E0A4
:104510000E94F30342C12091550130915601409110
:10452000570150915801C301B2010E94883A1816F0
:104530004CF08F819885A985BA850B97A105B105A7
:1045400008F429C160E080E00E94E503E090081AC9
:10455000F090091A00910A1A10910B1AA3E08A2E02
:10456000912C8C0E9D1EB5E0AB2EB12CAC0EBD1E59
:10457000CC24C394D12CCC0EDD1EA30192016F81FB
:10458000788589859A850E949C2149815A816B8111
:104590007C812EE08D819E810E941A38C301B20178
:1045A0000E945C0C01E819E1D8010D900020E9F7A8
:1045B000BD0161507109601B710BC8010E94F303BA
:1045C00061E080E00E94E5032EE048EE53E060E009
:1045D00070E08091241A9091251A0E941A3861E0A7
:1045E00080E996E00E94F3030E947C0BF8010190A1
:1045F0000020E9F7BF0161507109601B710BC80110
:104600000E94F30362E088E00E94E50362E08FE825
:1046100096E00E94F30362E080E00E94E50365E01B
:1046200082E996E00E94F3036F81788589859A85F7
:104630000E949D390E94450FD8010D900020E9F796
:10464000BD0161507109601B710BC8010E94F30329
:1046500062E083E10E94E50361E080E996E00E9468
:10466000F30362E08AE00E94E50364E088E996E0F3
:104670000E94F30362E08EE00E94E5036091081A55
:104680007091091A80910A1A90910B1A0E945C0C81
:10469000F80101900020E9F7BF0161507109601B2A
:1046A000710BC8010E94F3032DEC3CEC4CEC5DE374
:1046B000C301B2010E94883A18160CF06EC063E084
:1046C00087E00E94E50364E08DE896E00E94F30332
:1046D00063E081E10E94E50363E08EE896E00E94DA
:1046E000F30363E080E00E94E50320E030E048E46B
:1046F00052E46091E1197091E2198091E31990916F
:10470000E4190E94D73A9F938F937F936F938DE91B
:1047100096E09F938F931F930F930E943C45D8017F
:104720000D900020E9F7BD0161507109601B710B0C
:10473000C8010E94F30363E08BE00E94E50320E0E0
:1047400030E048E452E46091181A7091191A80918F
:104750001A1A90911B1A0E94D73A9F938F937F93B6
:104760006F938EE297E09F938F931F930F930E9416
:104770003C45F80101900020E9F7BF016150710943
:10478000601B710BC8010E94F3030FB6F894DEBFE3
:104790000FBECDBF02C00E9449202A960FB6F894E2
:1047A000DEBF0FBECDBFDF91CF911F910F91FF9064
:1047B000EF90DF90CF90BF90AF909F908F907F90C1
:1047C0006F905F904F9008952F923F924F925F921B
:1047D0006F927F928F929F92AF92BF92CF92DF9211
:1047E000EF92FF920F931F93CF93DF93CDB7DEB776
:1047F0002A970FB6F894DEBF0FBECDBF8C011B0108
:104800002F83388749875A871E821D821C821B820C
:104810001A8219826091FC197091FD198091FE191C
:104820009091FF190E9471390E9408212B013C01CF
:10483000809194179091951785FF27C084FF10C031
:104840008F7E90939517809394171092301928EAD1
:1048500036E0A80160E976E087E796E00E949E20B6
:10486000809130198F5F8A3018F48093301912C10B
:104870001092301980919417909195178F7D9160C7
:10488000909395178093941705C12091550130910D
:10489000560140915701509158016091FC19709157
:1048A000FD198091FE199091FF190E94883A1816FF
:1048B0003CF08BE0481651046104710408F4E8C030
:1048C00060E080E00E94E503E090081AF090091A89
:1048D00000910A1A10910B1A93E0892E912C8C0EDC
:1048E0009D1E25E0A22EB12CAC0EBD1ECC24C3947F
:1048F000D12CCC0EDD1E2F81388549855A85C30108
:10490000B2010E949C2149815A816B817C8124E102
:104910008D819E810E941A3861E080E00E94E5034B
:1049200024E148EE53E060E070E08091241A909119
:10493000251A0E941A3862E087E00E94E50363E0CE
:104940008EE896E00E94F30362E080E00E94E503B7
:1049500064E089EB96E00E94F3030E947C0B01E87F
:1049600019E1F80101900020E9F7BF0161507109D8
:10497000601B710BC8010E94F30363E088E00E9492
:10498000E50362E08FE896E00E94F30363E080E0D5
:104990000E94E50365E082E996E00E94F303C3010B
:1049A000B2010E949D390E94450FF801019000203C
:1049B000E9F7BF0161507109601B710BC8010E94CA
:1049C000F30362E083E10E94E50361E080E996E0A1
:1049D0000E94F30362E08AE00E94E50361E080E95F
:1049E00096E00E94F30363E0C1010E94F30380910B
:1049F000FB19882349F062E08DE00E94E50361E045
:104A000088E89AE00E94F30362E08EE00E94E503EA
:104A10006F81788589859A850E945C0C01E819E18F
:104A2000F80101900020E9F73197E01BF10B6E2FA0
:104A3000C8010E94F30363E083E10E94E50361E0A3
:104A400080E996E00E94F30363E08AE00E94E503B8
:104A500064E088E996E00E94F30363E08EE00E9440
:104A6000E5036091081A7091091A80910A1A9091D1
:104A70000B1A0E945C0CF80101900020E9F7BF01BD
:104A800061507109601B710BC8010E94F30302C0E1
:104A90000E9449202A960FB6F894DEBF0FBECDBF04
:104AA000DF91CF911F910F91FF90EF90DF90CF900A
:104AB000BF90AF909F908F907F906F905F904F903E
:104AC0003F902F9008954F925F926F927F928F92B6
:104AD0009F92AF92BF92CF92DF92EF92FF920F938D
:104AE0001F93CF93DF9300D000D000D0CDB7DEB7B7
:104AF0001E821D821C821B821A8219826091FC19FF
:104B00007091FD198091FE199091FF190E947139E1
:104B10000E9408212B013C018091941790919517D8
:104B200085FF28C084FF11C08F7E909395178093D6
:104B300094171092311928EA36E04EEB56E060E9FE
:104B400076E087E796E00E949E20809131198F5F82
:104B50008A3018F48093311929C11092311980914B
:104B60009417909195178F7D9160909395178093EE
:104B700094171CC120915501309156014091570165
:104B8000509158016091FC197091FD198091FE19A6
:104B90009091FF190E94883A18163CF08BE0481655
:104BA00051046104710408F4FFC060E080E00E94D9
:104BB000E503E090081AF090091A00910A1A109182
:104BC0000B1A2091FC193091FD194091FE1950915A
:104BD000FF1963E0862E912C8C0E9D1E75E0A72E8A
:104BE000B12CAC0EBD1ECC24C394D12CCC0EDD1E3A
:104BF000C301B2010E949C2149815A816B817C8151
:104C000024E18D819E810E941A3861E080E00E943B
:104C1000E50324E148EE53E060E070E08091241A5F
:104C20009091251A0E941A3862E087E00E94E503FD
:104C300063E08EE896E00E94F30362E080E00E9469
:104C4000E50364E089EB96E00E94F3030E947C0B8D
:104C500001E819E1F80101900020E9F7BF01615076
:104C60007109601B710BC8010E94F30363E088E0C7
:104C70000E94E50362E08FE896E00E94F30363E0A0
:104C800080E00E94E50365E082E996E00E94F3037C
:104C9000C301B2010E949D390E94450FF8010190A5
:104CA0000020E9F7BF0161507109601B710BC80159
:104CB0000E94F30362E08AE00E94E50361E080E97C
:104CC00096E00E94F30362E08FE00E94E50365E056
:104CD0008CE896E00E94F3038091FB19882349F049
:104CE00062E083E10E94E50361E088E89AE00E94C7
:104CF000F30362E08AE00E94E50320E030E040E256
:104D000051E46091001A7091011A8091021A9091F9
:104D1000031A0E94D73A0E946C39CB010E94060CFC
:104D200001E819E1F80101900020E9F7BF016150A5
:104D30007109601B710BC8010E94F30363E08AE0F4
:104D40000E94E50361E080E996E00E94F30363E0DE
:104D500081E10E94E50363E080ED96E00E94F303A9
:104D600063E08AE00E94E50320E030E040E251E4A5
:104D70006091DD197091DE198091DF199091E01931
:104D80000E94D73A0E946C39CB010E94060CF801B0
:104D900001900020E9F7BF0161507109601B710BA0
:104DA000C8010E94F30302C00E94492026960FB654
:104DB000F894DEBF0FBECDBFDF91CF911F910F9151
:104DC000FF90EF90DF90CF90BF90AF909F908F902B
:104DD0007F906F905F904F900895CF93DF93809175
:104DE00094179091951785FF28C084FF11C08F7E7E
:104DF00090939517809394171092321924ED36E012
:104E000049EE56E060E976E087E796E00E949E2052
:104E1000809132198F5F809332198A3008F4ACC1C7
:104E20001092321980919417909195178F7D91600F
:104E300090939517809394179FC1209155013091BD
:104E4000560140915701509158016091EB197091B2
:104E5000EC198091ED199091EE190E94883A18167C
:104E60000CF086C160E08AE00E94E50363E08EE812
:104E700096E00E94F30360E080E00E94E50364E0B6
:104E80008DEF96E00E94F3036091EB197091EC199D
:104E90008091ED199091EE190E945C0CC1E8D9E166
:104EA000FE0101900020E9F7BF01615071096C1B00
:104EB0007D0BCE010E94F30360E08CE00E94E503CD
:104EC00020E030E040E251E460911C1A70911D1A1C
:104ED00080911E1A90911F1A0E94D73A0E946C3935
:104EE000CB010E94060CFE0101900020E9F7BF01F2
:104EF000615071096C1B7D0BCE010E94F30361E0D0
:104F00008AE00E94E50363E08EE896E00E94F303E6
:104F100061E080E00E94E50364E082E097E00E94A7
:104F2000F3036091E5197091E6198091E71990916A
:104F3000E8190E945C0CFE0101900020E9F7BF0116
:104F4000615071096C1B7D0BCE010E94F30361E07F
:104F50008CE00E94E50320E030E040E251E4609103
:104F6000041A7091051A8091061A9091071A0E94EE
:104F7000D73A0E946C39CB010E94060CFE010190C9
:104F80000020E9F7BF01615071096C1B7D0BCE0158
:104F90000E94F30362E080E00E94E50320E030E03D
:104FA00044EB53E46091F3197091F4198091F51971
:104FB0009091F6190E94D73A26E53EE049EC50E47C
:104FC0000E9404390E946C397F936F9387E097E0C9
:104FD0009F938F93DF93CF930E943C45FE010190F6
:104FE0000020E9F7BF01615071096C1B7D0BCE01F8
:104FF0000E94F30362E08AE00E94E5032091041A14
:105000003091051A4091061A5091071A60911C1AA6
:1050100070911D1A80911E1A90911F1A0E94983843
:1050200020E030E040E251E40E94D73A0E946C391F
:10503000CB016AE070E00E9495409F938F937F932D
:105040006F9383E197E09F938F93DF93CF930E94B9
:105050003C45FE0101900020E9F7BF016150710954
:105060006C1B7D0BCE010E94F3038DB79EB70E968D
:105070000FB6F8949EBF0FBE8DBF209155013091A1
:10508000560140915701509158016091FC1970915F
:10509000FD198091FE199091FF190E94883A181607
:1050A0000CF06AC063E081E10E94E50363E08EE8F2
:1050B00096E00E94F30363E080E00E94E50320E0B5
:1050C00030E048E452E46091E1197091E219809176
:1050D000E3199091E4190E94D73A9F938F937F939D
:1050E0006F9381E297E09F938F93DF93CF930E941A
:1050F0003C45FE0101900020E9F7BF0161507109B4
:105100006C1B7D0BCE010E94F30363E08AE00E94DA
:10511000E50320E030E048E452E46091181A709111
:10512000191A80911A1A90911B1A0E94D73A9F93CC
:105130008F937F936F938DE297E09F938F93DF938D
:10514000CF930E943C4509900020E9F72197C15870
:10515000D941EDB7FEB770960FB6F894FEBF0FBEFB
:10516000EDBF6C2F81E899E1DF91CF910C94F303AF
:10517000DF91CF910C944920DF91CF910895CF9288
:10518000DF92EF92FF920F931F93CF93DF930E94D2
:10519000E20360E080E00E94E5038091171A8F939C
:1051A0008091161A8F9307E317E01F930F93C1E8BE
:1051B000D9E1DF93CF930E943C45FE01019000208E
:1051C000E9F7BF01615071096C1B7D0BCE010E9494
:1051D000F30361E080E00E94E5038091FA198F9368
:1051E0008091F9198F931F930F93DF93CF930E94B0
:1051F0003C45FE0101900020E9F7BF0161507109B3
:105200006C1B7D0BCE010E94F30360E086E00E94E0
:10521000E503EAE2F1E081818F9380818F93FDE3E2
:10522000EF2EF7E0FF2EFF92EF92DF93CF930E94D5
:105230003C45FE0101900020E9F7BF016150710972
:105240006C1B7D0BCE010E94F303EEE2F1E0818145
:105250008F9380818F93ECE2F1E081818F93808145
:105260008F9303E417E01F930F93DF93CF930E9474
:105270003C45FE0101900020E9F7BF016150710932
:105280006C1B7D0BCE010E94F30361E086E00E945F
:10529000E503E0E3F1E081818F9380818F93FF92BA
:1052A000EF92DF93CF930E943C45FE0101900020D6
:1052B000E9F7BF01615071096C1B7D0B8DB79EB77B
:1052C00080960FB6F8949EBF0FBE8DBFCE010E9490
:1052D000F303E4E3F1E081818F9380818F93E2E334
:1052E000F1E081818F9380818F931F930F93DF93E0
:1052F000CF930E943C45FE0101900020E9F7BF01D9
:10530000615071096C1B7D0BCE010E94F30362E0BA
:1053100080E00E94E5030091F7191091F819B80197
:10532000882777FD8095982F0E949F3920E030E4F0
:105330004CE955E40E94D73A20E030E040E859E3D8
:105340000E94D73A0E947139A8EECA2EA3E0DA2E45
:10535000CB01B6010E9481409F938F937F936F93FF
:105360001F930F930DE417E01F930F93DF93CF93D9
:105370000E943C45FE0101900020E9F7BF01615009
:1053800071096C1B7D0BCE010E94F30363E080E08A
:105390000E94E503E090E919F090EA19B701882727
:1053A00077FD8095982F0E949F3920E030E44CE9EA
:1053B00055E40E94D73A20E030E040E859E30E94EB
:1053C000D73A0E947139CB01B6010E9481409F9368
:1053D0008F937F936F93FF92EF921F930F93DF93BF
:1053E000CF930E943C45FE0101900020E9F7BF01E8
:1053F000615071096C1B7D0BCE010E94F30362E0CA
:105400008FE00E94E50365E08DE597E00E94F303DD
:1054100063E08DE00E94E50320E030E044EB53E4DC
:105420006091F3197091F4198091F5199091F61922
:105430000E94D73A26E53EE049EC50E40E94043948
:105440000E946C397F936F9383E697E09F938F93CD
:10545000DF93CF930E943C4509900020E9F7219704
:10546000C158D941EDB7FEB7B2960FB6F894FEBF5A
:105470000FBEEDBF6C2F81E899E1DF91CF911F91B5
:105480000F91FF90EF90DF90CF900C94F3036F9803
:10549000779A6E98769A209A289AEAE6F0E08081C8
:1054A00080618083EE9A789408951F920F920FB6D0
:1054B0000F9211242F935F936F937F938F939F93FA
:1054C000AF93BF938CB19CB196FB992790F921E0E3
:1054D00092278095881F8827881F20913319981755
:1054E00011F02F5F01C0215020933319809133199F
:1054F000992787FD909560912801709129010E945C
:1055000095408091261A9091271A680F791F709301
:10551000271A6093261A672B59F01092331980913D
:105520009417909195178160909395178093941795
:10553000BF91AF919F918F917F916F915F912F91CB
:105540000F900FBE0F901F9018956F927F928F92C1
:105550009F92AF92BF92CF92DF92EF92FF920F9302
:105560001F93CF93DF93EC01A62E142FF22E622F00
:10557000802F0E94E503D02E06C061E080E996E00E
:105580000E94F303D39483E18D15B8F7E1E0EE15A3
:1055900018F0112329F126C06F2D6F5F802F0E9414
:1055A000E503D02E06C061E080E996E00E94F30397
:1055B000D394F3E1FD15B8F782E0E81651F36F2DAF
:1055C0006E5F802F0E94E503D02E06C061E080E967
:1055D00096E00E94F303D394E3E1ED15B8F7D9CF39
:1055E000DA2C01C0D12EDA94F1E0FE1508F077C074
:1055F000702E739473946F2D872D0E94E503FE0126
:10560000ED0DF11DED0DF11D6081718181E899E1D4
:105610000E94E14481E8882E89E1982EF4010190EE
:105620000020E9F73197E819F9096E2FC4010E94AB
:10563000F3036F2D6F5F802F0E94E503C12ED12CE5
:10564000F601EE0FFF1FEC0FFD1F81818F9380810C
:105650008F938AE697E09F938F939F928F920E94F9
:105660003C45F40101900020E9F73197E819F90968
:105670006E2FC4010E94F303B12C450181E0881A0A
:1056800091080F900F900F900F900F900F90C814EB
:10569000D90419F0612E639401C0612C6F2D6E5FE7
:1056A000872D0E94E503FE01E60DF11DE60DF11DBB
:1056B0006081718181E899E10E94E144E1E8F9E1CA
:1056C00001900020E9F73197E158F9416E2F81E808
:1056D00099E10E94F303E4E0EE16B9F06AC06F2D81
:1056E000802F0E94E503FE01E10FF11DE10FF11D86
:1056F00081818F9380818F938AE697E09F938F9328
:10570000C1E8D9E1DF93CF9332C0C814D90441F086
:10571000F2E0AF1AB108CA14DB0421F01E5F03C027
:1057200011E001C010E083E0F80E6F2D802F0E9481
:10573000E50306C061E080E996E00E94F3030F5F95
:105740000431C0F36F2D872D0E94E503FE01E10FA8
:10575000F11DE10FF11D81818F9380818F938FE681
:1057600097E09F938F93C1E8D9E1DF93CF930E9495
:105770003C45FE0101900020E9F7BF01615071092D
:105780006C1B7D0B0F900F900F900F900F900F9050
:10579000CE01DF91CF911F910F91FF90EF90DF909D
:1057A000CF90BF90AF909F908F907F906F900C9410
:1057B000F303DF91CF911F910F91FF90EF90DF9056
:1057C000CF90BF90AF909F908F907F906F900895F3
:1057D0000E94BF28809194179091951781FF26C051
:1057E0008D7F90939517809394170E94E20361E058
:1057F00080E00E94E5036FE084E797E00E94F303F6
:105800002FEF83EC99E0215080409040E1F700C0F9
:10581000000080910C1A90910D1A9D7F90930D1AA3
:1058200080930C1A10923519109234190895CF9361
:10583000DF93809194179091951780FF21C020915C
:10584000261A3091271A1216130634F420913701C4
:10585000283258F42F5F07C0232B39F020913701ED
:10586000203118F02150209337018E7F90939517A7
:10587000809394171092271A1092261A10923619B4
:1058800080913619811158C08FEF809336190E948C
:10589000E20360E080E00E94E50364E184E897E0D1
:1058A0000E94F30361E080E00E94E5036BE089E978
:1058B00097E00E94F30380913701883231F463E06E
:1058C00088E79BE00E94F30325C06AE00E947540D0
:1058D0001F929F931F928F938CEC99E09F938F93CD
:1058E000C1E8D9E1DF93CF930E943C45FE010190CE
:1058F0000020E9F7BF01615071096C1B7D0BCE01DF
:105900000E94F3038DB79EB708960FB6F8949EBF1A
:105910000FBE8DBF62E080E00E94E50363E185EA8F
:1059200097E00E94F30363E080E00E94E50363E1F7
:1059300089EB97E00E94F30380919417909195175B
:1059400081FF3CC08D7F90939517809394170E94A0
:10595000E20361E081E00E94E50388E290E00E94BA
:10596000D94590913701891761F041E050E068E234
:1059700070E087E391E00E94ED456CE08DEC97E0EC
:1059800003C06FE084E797E00E94F3039FEFE3EC2E
:10599000F9E09150E040F040E1F700C00000809154
:1059A0000C1A90910D1A9D7F90930D1A80930C1AEA
:1059B000109235191092341910923619DF91CF9147
:1059C0000895EF920F9380913801909139018130C1
:1059D000910519F41092371916C08A30910511F407
:1059E00081E00FC08436910511F482E00AC0883E40
:1059F00023E0920711F483E004C08031974219F448
:105A000084E080933719809194179091951780FFC7
:105A10001DC02091261A3091271A1216130624F45D
:105A2000209137192F5F05C0232B29F020913719BA
:105A30002150209337198E7F909395178093941758
:105A40001092271A1092261A10923819809138193C
:105A5000811155C08FEF809338196091371901C0BB
:105A600065506530ECF701C06B5F67FDFDCF60935B
:105A70003719772767FD7095872F972F0E949F39D9
:105A80009B01AC0160E070E080E291E40E943A3B4F
:105A90000E94713970933901609338010E94E203CA
:105AA00060E080E00E94E50360E18AED97E00E94FB
:105AB000F30361E080E00E94E50366E08BEE97E08F
:105AC0000E94F303EE24E39406E021E040913719AD
:105AD00065E080E891E00E94A52A62E080E00E94F3
